{
  "data": {
    "bytecode": {
      "linkReferences": {},
      "object": "6080604052660e35fa931a0000600655603c60075560076008556000600960006101000a81548160ff021916908315150217905550670de0b6b3a7640000600a55736d6f646c65746879627264670000000000000000600b60006101000a81548173ffffffffffffffffffffffffffffffffffffffff021916908373ffffffffffffffffffffffffffffffffffffffff160217905550610400600c55660110d9316ec000600d55348015620000b357600080fd5b50620000d4620000c8620000e160201b60201c565b620000e960201b60201c565b60018081905550620001ad565b600033905090565b60008060009054906101000a900473ffffffffffffffffffffffffffffffffffffffff169050816000806101000a81548173ffffffffffffffffffffffffffffffffffffffff021916908373ffffffffffffffffffffffffffffffffffffffff1602179055508173ffffffffffffffffffffffffffffffffffffffff168173ffffffffffffffffffffffffffffffffffffffff167f8be0079c531659141344cd1fd0a4f28419497f9722a3daafe3b4186f6b6457e060405160405180910390a35050565b613f8080620001bd6000396000f3fe6080604052600436106101f95760003560e01c80637755618b1161010d5780639c11bc30116100a0578063cfc16cea1161006f578063cfc16cea14610696578063d87500db146106c1578063f0bdb2d1146106fe578063f2fde38b14610727578063fa09e63014610750576101f9565b80639c11bc30146105fd578063acec338a14610626578063bb5ddb0f1461064f578063c6c0f59e1461066b576101f9565b80638da5cb5b116100dc5780638da5cb5b14610543578063960bfe041461056e578063996b2f9414610597578063998cdf83146105d4576101f9565b80637755618b146104a8578063823d2fc8146104d157806382b12dd7146104ed57806387b50acb14610518576101f9565b80634008b03f1161019057806361ab5a781161015f57806361ab5a78146103eb578063650bd364146104145780636a70fef21461043d578063715018a614610468578063728952f81461047f576101f9565b80634008b03f146103435780634acf77211461036c57806350dcb027146103955780635f7e9399146103c0576101f9565b80632c05f9a2116101cc5780632c05f9a21461029b5780632ee111ed146102c65780633301a464146102ef5780633ab578aa14610318576101f9565b806301ffc9a7146101fe57806302fb0c5e1461023b57806306e30dfc146102665780631d1d4e2914610270575b600080fd5b34801561020a57600080fd5b50610225600480360381019061022091906122b4565b610779565b60405161023291906122fc565b60405180910390f35b34801561024757600080fd5b5061025061085b565b60405161025d91906122fc565b60405180910390f35b61026e61086e565b005b34801561027c57600080fd5b506102856108e0565b6040516102929190612330565b60405180910390f35b3480156102a757600080fd5b506102b06108e6565b6040516102bd9190612330565b60405180910390f35b3480156102d257600080fd5b506102ed60048036038101906102e891906123a9565b6108ec565b005b3480156102fb57600080fd5b5061031660048036038101906103119190612402565b61097b565b005b34801561032457600080fd5b5061032d6109ba565b60405161033a9190612330565b60405180910390f35b34801561034f57600080fd5b5061036a600480360381019061036591906124d0565b6109c0565b005b34801561037857600080fd5b50610393600480360381019061038e91906124d0565b610b00565b005b3480156103a157600080fd5b506103aa610c55565b6040516103b79190612330565b60405180910390f35b3480156103cc57600080fd5b506103d5610c5f565b6040516103e2919061253f565b60405180910390f35b3480156103f757600080fd5b50610412600480360381019061040d9190612402565b610c75565b005b34801561042057600080fd5b5061043b600480360381019061043691906125b0565b610cb4565b005b34801561044957600080fd5b50610452610dd9565b60405161045f9190612330565b60405180910390f35b34801561047457600080fd5b5061047d610ddf565b005b34801561048b57600080fd5b506104a660048036038101906104a19190612402565b610df3565b005b3480156104b457600080fd5b506104cf60048036038101906104ca9190612402565b610e32565b005b6104eb60048036038101906104e69190612634565b610e71565b005b3480156104f957600080fd5b50610502611063565b60405161050f9190612330565b60405180910390f35b34801561052457600080fd5b5061052d611069565b60405161053a9190612330565b60405180910390f35b34801561054f57600080fd5b5061055861106f565b60405161056591906126e7565b60405180910390f35b34801561057a57600080fd5b5061059560048036038101906105909190612402565b611098565b005b3480156105a357600080fd5b506105be60048036038101906105b99190612402565b61111b565b6040516105cb919061271b565b60405180910390f35b3480156105e057600080fd5b506105fb60048036038101906105f69190612402565b611133565b005b34801561060957600080fd5b50610624600480360381019061061f9190612402565b611172565b005b34801561063257600080fd5b5061064d60048036038101906106489190612762565b6111b1565b005b610669600480360381019061066491906125b0565b611205565b005b34801561067757600080fd5b50610680611356565b60405161068d91906126e7565b60405180910390f35b3480156106a257600080fd5b506106ab61137c565b6040516106b89190612330565b60405180910390f35b3480156106cd57600080fd5b506106e860048036038101906106e39190612402565b611382565b6040516106f591906122fc565b60405180910390f35b34801561070a57600080fd5b50610725600480360381019061072091906127cd565b6113a2565b005b34801561073357600080fd5b5061074e600480360381019061074991906123a9565b6114b8565b005b34801561075c57600080fd5b506107776004803603810190610772919061280d565b61153b565b005b60007f69bc44e0000000000000000000000000000000000000000000000000000000007bffffffffffffffffffffffffffffffffffffffffffffffffffffffff1916827bffffffffffffffffffffffffffffffffffffffffffffffffffffffff1916148061084457507f650bd364000000000000000000000000000000000000000000000000000000007bffffffffffffffffffffffffffffffffffffffffffffffffffffffff1916827bffffffffffffffffffffffffffffffffffffffffffffffffffffffff1916145b80610854575061085382611632565b5b9050919050565b600960009054906101000a900460ff1681565b600034116108b1576040517f08c379a00000000000000000000000000000000000000000000000000000000081526004016108a890612897565b60405180910390fd5b347f840be946bba3df0d184eb7e6cd7c9e57bb380cf6078516c7441db5709d58509860405160405180910390a2565b600c5481565b600a5481565b6108f461169c565b80600b60006101000a81548173ffffffffffffffffffffffffffffffffffffffff021916908373ffffffffffffffffffffffffffffffffffffffff1602179055508073ffffffffffffffffffffffffffffffffffffffff167f679cb5acfebd038830b61daadd5f2f74e2114862b1c289a5d2db82bc6eda32a660405160405180910390a250565b61098361169c565b80600a81905550807f11cff79cc5c082b5f775ae922a2a6dc80e9f79b9207767278bdf7391db5467f760405160405180910390a250565b60085481565b6109c861169c565b60008383905011610a0e576040517f08c379a0000000000000000000000000000000000000000000000000000000008152600401610a0590612903565b60405180910390fd5b600360009054906101000a900463ffffffff1663ffffffff166008548263ffffffff16610a3b9190612952565b11610a7b576040517f08c379a0000000000000000000000000000000000000000000000000000000008152600401610a72906129d2565b60405180910390fd5b60008383604051602001610a90929190612ab5565b60405160208183030381529060405280519060200120905080600260008463ffffffff168152602001908152602001600020819055508163ffffffff16817ff541dede932a20dba17286430555d7aa784b74222f2a34f107d40822f41992e360405160405180910390a350505050565b610b0861169c565b60008383905011610b4e576040517f08c379a0000000000000000000000000000000000000000000000000000000008152600401610b4590612903565b60405180910390fd5b600360009054906101000a900463ffffffff1663ffffffff168163ffffffff161015610baf576040517f08c379a0000000000000000000000000000000000000000000000000000000008152600401610ba690612b25565b60405180910390fd5b60008383604051602001610bc4929190612ab5565b60405160208183030381529060405280519060200120905080600260008463ffffffff1681526020019081526020016000208190555081600360006101000a81548163ffffffff021916908363ffffffff1602179055508163ffffffff16817f36885d9a49d239da5379a6f8f9bb89273332a7e312cb5b8a2d3b0f567e8209f460405160405180910390a350505050565b6000600d54905090565b600360009054906101000a900463ffffffff1681565b610c7d61169c565b80600481905550807f06055c66c43187163b022b7d954ff32b4ba5265e175458d1b134cfe8ab72f41260405160405180910390a250565b3073ffffffffffffffffffffffffffffffffffffffff163373ffffffffffffffffffffffffffffffffffffffff1614610d22576040517f08c379a0000000000000000000000000000000000000000000000000000000008152600401610d1990612b91565b60405180910390fd5b600b60009054906101000a900473ffffffffffffffffffffffffffffffffffffffff1673ffffffffffffffffffffffffffffffffffffffff168373ffffffffffffffffffffffffffffffffffffffff1614610db2576040517f08c379a0000000000000000000000000000000000000000000000000000000008152600401610da990612bfd565b60405180910390fd5b6000808383810190610dc49190612d6c565b91509150610dd2828261171a565b5050505050565b600e5481565b610de761169c565b610df16000611981565b565b610dfb61169c565b80600d81905550807fabd57ef278738881488128581f298faa35ba1bae2bbec9fb6e370ff60d531e4b60405160405180910390a250565b610e3a61169c565b80600881905550807f01116a77fa86522c55d40463f1b48825870a5d04ea15ca52a166d8ace7f355ff60405160405180910390a250565b60065434101580610ead57503073ffffffffffffffffffffffffffffffffffffffff168473ffffffffffffffffffffffffffffffffffffffff16145b610eec576040517f08c379a0000000000000000000000000000000000000000000000000000000008152600401610ee390612e14565b60405180910390fd5b60008383905011610f32576040517f08c379a0000000000000000000000000000000000000000000000000000000008152600401610f2990612e80565b60405180910390fd5b600085858585856020016020810190610f4b9190612ea0565b8660000135604051602001610f6596959493929190612f1a565b6040516020818303038152906040529050610f808183611a45565b8473ffffffffffffffffffffffffffffffffffffffff168673ffffffffffffffffffffffffffffffffffffffff1683600001357f3591658888eebc109961f7116a3e6aafbbeb08b55e727cf69c44d466a77a90d18787604051610fe4929190612f76565b60405180910390a48473ffffffffffffffffffffffffffffffffffffffff1663650bd3648786866040518463ffffffff1660e01b815260040161102993929190612f9a565b600060405180830381600087803b15801561104357600080fd5b505af1158015611057573d6000803e3d6000fd5b50505050505050505050565b60065481565b60045481565b60008060009054906101000a900473ffffffffffffffffffffffffffffffffffffffff16905090565b6110a061169c565b60648111156110e4576040517f08c379a00000000000000000000000000000000000000000000000000000000081526004016110db90613018565b60405180910390fd5b80600781905550807fadfa8ecb21b6962ebcd0adbd9ab985b7b4c5b5eb3b0dead683171565c7bfe17160405160405180910390a250565b60026020528060005260406000206000915090505481565b61113b61169c565b80600681905550807f42dfb00d085d601e55327921154ae76c1b24270b026c5a0c51caee18eb4c401f60405160405180910390a250565b61117a61169c565b80600c81905550807f80e9dc023eeed9cbe4e886f225681c4fa94a046011c6269619c21befd6c4518160405160405180910390a250565b6111b961169c565b80600960006101000a81548160ff0219169083151502179055508015157fd06b0db8a7172c6c142c15cd90b6efb883b600b978dfca380621aa4c9f6d881560405160405180910390a250565b600960009054906101000a900460ff16611254576040517f08c379a000000000000000000000000000000000000000000000000000000000815260040161124b90613084565b60405180910390fd5b600c5482829050111561129c576040517f08c379a0000000000000000000000000000000000000000000000000000000008152600401611293906130f0565b60405180910390fd5b600d543410156112e1576040517f08c379a00000000000000000000000000000000000000000000000000000000081526004016112d89061315c565b60405180910390fd5b34600e60008282546112f39190612952565b925050819055507ff2a50cd57a795ad452a0b8586bcd3fe8e3ee00054c01c4712655d7753539dd356004600081548092919061132e9061317c565b919050553385858534604051611349969594939291906131c4565b60405180910390a1505050565b600b60009054906101000a900473ffffffffffffffffffffffffffffffffffffffff1681565b60075481565b60056020528060005260406000206000915054906101000a900460ff1681565b6113aa61169c565b80600e60008282546113bc9190613220565b9250508190555060008273ffffffffffffffffffffffffffffffffffffffff16826040516113e990613285565b60006040518083038185875af1925050503d8060008114611426576040519150601f19603f3d011682016040523d82523d6000602084013e61142b565b606091505b505090508061146f576040517f08c379a0000000000000000000000000000000000000000000000000000000008152600401611466906132e6565b60405180910390fd5b818373ffffffffffffffffffffffffffffffffffffffff167fcc89aff20f6022ea39ee28e42ebe0013f5e8a32d9388b49d2f6fe08563a54cdf60405160405180910390a3505050565b6114c061169c565b600073ffffffffffffffffffffffffffffffffffffffff168173ffffffffffffffffffffffffffffffffffffffff160361152f576040517f08c379a000000000000000000000000000000000000000000000000000000000815260040161152690613378565b60405180910390fd5b61153881611981565b50565b61154361169c565b600047905060008273ffffffffffffffffffffffffffffffffffffffff168260405161156e90613285565b60006040518083038185875af1925050503d80600081146115ab576040519150601f19603f3d011682016040523d82523d6000602084013e6115b0565b606091505b50509050806115f4576040517f08c379a00000000000000000000000000000000000000000000000000000000081526004016115eb906133e4565b60405180910390fd5b7f06097061aeda806b5e9cb4133d9899f332ff0913956567fc0f7ea15e3d19947c8383604051611625929190613463565b60405180910390a1505050565b60007f01ffc9a7000000000000000000000000000000000000000000000000000000007bffffffffffffffffffffffffffffffffffffffffffffffffffffffff1916827bffffffffffffffffffffffffffffffffffffffffffffffffffffffff1916149050919050565b6116a4611f24565b73ffffffffffffffffffffffffffffffffffffffff166116c261106f565b73ffffffffffffffffffffffffffffffffffffffff1614611718576040517f08c379a000000000000000000000000000000000000000000000000000000000815260040161170f906134d8565b60405180910390fd5b565b60026001540361175f576040517f08c379a000000000000000000000000000000000000000000000000000000000815260040161175690613544565b60405180910390fd5b600260018190555060008251116117ab576040517f08c379a00000000000000000000000000000000000000000000000000000000081526004016117a290612903565b60405180910390fd5b600360009054906101000a900463ffffffff1663ffffffff168163ffffffff161161180b576040517f08c379a0000000000000000000000000000000000000000000000000000000008152600401611802906135d6565b60405180910390fd5b60008260405160200161181e919061367c565b60405160208183030381529060405280519060200120905080600260008463ffffffff1681526020019081526020016000208190555081600360006101000a81548163ffffffff021916908363ffffffff1602179055506000611890600e54476118889190613220565b600a54611f2c565b905060003273ffffffffffffffffffffffffffffffffffffffff16826040516118b890613285565b60006040518083038185875af1925050503d80600081146118f5576040519150601f19603f3d011682016040523d82523d6000602084013e6118fa565b606091505b505090508061193e576040517f08c379a0000000000000000000000000000000000000000000000000000000008152600401611935906136ea565b60405180910390fd5b8363ffffffff1682847f3dab4e75c61b76a4152c289f3c93392ddab6386b2423ffab2cee4da9fbb05c7160405160405180910390a4505050600180819055505050565b60008060009054906101000a900473ffffffffffffffffffffffffffffffffffffffff169050816000806101000a81548173ffffffffffffffffffffffffffffffffffffffff021916908373ffffffffffffffffffffffffffffffffffffffff1602179055508173ffffffffffffffffffffffffffffffffffffffff168173ffffffffffffffffffffffffffffffffffffffff167f8be0079c531659141344cd1fd0a4f28419497f9722a3daafe3b4186f6b6457e060405160405180910390a35050565b6000816000013590506000826020016020810190611a639190612ea0565b90506000838060a00190611a779190613719565b80806020026020016040519081016040528093929190818152602001838360200280828437600081840152601f19601f820116905080830192505050505050509050600960009054906101000a900460ff16611b08576040517f08c379a0000000000000000000000000000000000000000000000000000000008152600401611aff90613084565b60405180910390fd5b6005600084815260200190815260200160002060009054906101000a900460ff1615611b69576040517f08c379a0000000000000000000000000000000000000000000000000000000008152600401611b60906137c8565b60405180910390fd5b600360009054906101000a900463ffffffff1663ffffffff168263ffffffff161115611bca576040517f08c379a0000000000000000000000000000000000000000000000000000000008152600401611bc190613834565b60405180910390fd5b60085482600360009054906101000a900463ffffffff16611beb9190613854565b63ffffffff161115611c32576040517f08c379a0000000000000000000000000000000000000000000000000000000008152600401611c29906138d8565b60405180910390fd5b6000815111611c76576040517f08c379a0000000000000000000000000000000000000000000000000000000008152600401611c6d90613944565b60405180910390fd5b600260008363ffffffff1681526020019081526020016000205481604051602001611ca1919061367c565b6040516020818303038152906040528051906020012014611cf7576040517f08c379a0000000000000000000000000000000000000000000000000000000008152600401611cee906139d6565b60405180910390fd5b600085805190602001209050600060646007548451611d1691906139f6565b611d209190613a67565b905060008060005b8551811015611ea95781898060600190611d429190613a98565b83818110611d5357611d52613afb565b5b9050602002013514611e9857611df9898060400190611d729190613b2a565b83818110611d8357611d82613afb565b5b9050602002016020810190611d989190613bc6565b8a8060600190611da89190613a98565b84818110611db957611db8613afb565b5b905060200201358b8060800190611dd09190613a98565b85818110611de157611de0613afb565b5b9050602002013588611f45909392919063ffffffff16565b73ffffffffffffffffffffffffffffffffffffffff16868281518110611e2257611e21613afb565b5b602002602001015173ffffffffffffffffffffffffffffffffffffffff1614611e80576040517f08c379a0000000000000000000000000000000000000000000000000000000008152600401611e7790613c3f565b60405180910390fd5b600183611e8d9190612952565b925083831015611ea9575b80611ea29061317c565b9050611d28565b5082821015611eed576040517f08c379a0000000000000000000000000000000000000000000000000000000008152600401611ee490613cab565b60405180910390fd5b60016005600089815260200190815260200160002060006101000a81548160ff021916908315150217905550505050505050505050565b600033905090565b6000818310611f3b5781611f3d565b825b905092915050565b6000806000611f5687878787611f70565b91509150611f638161207c565b8192505050949350505050565b6000807f7fffffffffffffffffffffffffffffff5d576e7357a4501ddfe92f46681b20a08360001c1115611fab576000600391509150612073565b601b8560ff1614158015611fc35750601c8560ff1614155b15611fd5576000600491509150612073565b600060018787878760405160008152602001604052604051611ffa9493929190613cda565b6020604051602081039080840390855afa15801561201c573d6000803e3d6000fd5b505050602060405103519050600073ffffffffffffffffffffffffffffffffffffffff168173ffffffffffffffffffffffffffffffffffffffff160361206a57600060019250925050612073565b80600092509250505b94509492505050565b600060048111156120905761208f613d1f565b5b8160048111156120a3576120a2613d1f565b5b031561224557600160048111156120bd576120bc613d1f565b5b8160048111156120d0576120cf613d1f565b5b03612110576040517f08c379a000000000000000000000000000000000000000000000000000000000815260040161210790613d9a565b60405180910390fd5b6002600481111561212457612123613d1f565b5b81600481111561213757612136613d1f565b5b03612177576040517f08c379a000000000000000000000000000000000000000000000000000000000815260040161216e90613e06565b60405180910390fd5b6003600481111561218b5761218a613d1f565b5b81600481111561219e5761219d613d1f565b5b036121de576040517f08c379a00000000000000000000000000000000000000000000000000000000081526004016121d590613e98565b60405180910390fd5b6004808111156121f1576121f0613d1f565b5b81600481111561220457612203613d1f565b5b03612244576040517f08c379a000000000000000000000000000000000000000000000000000000000815260040161223b90613f2a565b60405180910390fd5b5b50565b6000604051905090565b600080fd5b600080fd5b60007fffffffff0000000000000000000000000000000000000000000000000000000082169050919050565b6122918161225c565b811461229c57600080fd5b50565b6000813590506122ae81612288565b92915050565b6000602082840312156122ca576122c9612252565b5b60006122d88482850161229f565b91505092915050565b60008115159050919050565b6122f6816122e1565b82525050565b600060208201905061231160008301846122ed565b92915050565b6000819050919050565b61232a81612317565b82525050565b60006020820190506123456000830184612321565b92915050565b600073ffffffffffffffffffffffffffffffffffffffff82169050919050565b60006123768261234b565b9050919050565b6123868161236b565b811461239157600080fd5b50565b6000813590506123a38161237d565b92915050565b6000602082840312156123bf576123be612252565b5b60006123cd84828501612394565b91505092915050565b6123df81612317565b81146123ea57600080fd5b50565b6000813590506123fc816123d6565b92915050565b60006020828403121561241857612417612252565b5b6000612426848285016123ed565b91505092915050565b600080fd5b600080fd5b600080fd5b60008083601f8401126124545761245361242f565b5b8235905067ffffffffffffffff81111561247157612470612434565b5b60208301915083602082028301111561248d5761248c612439565b5b9250929050565b600063ffffffff82169050919050565b6124ad81612494565b81146124b857600080fd5b50565b6000813590506124ca816124a4565b92915050565b6000806000604084860312156124e9576124e8612252565b5b600084013567ffffffffffffffff81111561250757612506612257565b5b6125138682870161243e565b93509350506020612526868287016124bb565b9150509250925092565b61253981612494565b82525050565b60006020820190506125546000830184612530565b92915050565b60008083601f8401126125705761256f61242f565b5b8235905067ffffffffffffffff81111561258d5761258c612434565b5b6020830191508360018202830111156125a9576125a8612439565b5b9250929050565b6000806000604084860312156125c9576125c8612252565b5b60006125d786828701612394565b935050602084013567ffffffffffffffff8111156125f8576125f7612257565b5b6126048682870161255a565b92509250509250925092565b600080fd5b600060c0828403121561262b5761262a612610565b5b81905092915050565b6000806000806000608086880312156126505761264f612252565b5b600061265e88828901612394565b955050602061266f88828901612394565b945050604086013567ffffffffffffffff8111156126905761268f612257565b5b61269c8882890161255a565b9350935050606086013567ffffffffffffffff8111156126bf576126be612257565b5b6126cb88828901612615565b9150509295509295909350565b6126e18161236b565b82525050565b60006020820190506126fc60008301846126d8565b92915050565b6000819050919050565b61271581612702565b82525050565b6000602082019050612730600083018461270c565b92915050565b61273f816122e1565b811461274a57600080fd5b50565b60008135905061275c81612736565b92915050565b60006020828403121561277857612777612252565b5b60006127868482850161274d565b91505092915050565b600061279a8261234b565b9050919050565b6127aa8161278f565b81146127b557600080fd5b50565b6000813590506127c7816127a1565b92915050565b600080604083850312156127e4576127e3612252565b5b60006127f2858286016127b8565b9250506020612803858286016123ed565b9150509250929050565b60006020828403121561282357612822612252565b5b6000612831848285016127b8565b91505092915050565b600082825260208201905092915050565b7f4272696467653a206d75737420656e646f77206e6f6e7a65726f000000000000600082015250565b6000612881601a8361283a565b915061288c8261284b565b602082019050919050565b600060208201905081810360008301526128b081612874565b9050919050565b7f4272696467653a20656d7074792076616c696461746f72207365740000000000600082015250565b60006128ed601b8361283a565b91506128f8826128b7565b602082019050919050565b6000602082019050818103600083015261291c816128e0565b9050919050565b7f4e487b7100000000000000000000000000000000000000000000000000000000600052601160045260246000fd5b600061295d82612317565b915061296883612317565b92508282019050808211156129805761297f612923565b5b92915050565b7f4272696467653a2073657420697320696e616374697665000000000000000000600082015250565b60006129bc60178361283a565b91506129c782612986565b602082019050919050565b600060208201905081810360008301526129eb816129af565b9050919050565b600082825260208201905092915050565b6000819050919050565b612a168161236b565b82525050565b6000612a288383612a0d565b60208301905092915050565b6000612a436020840184612394565b905092915050565b6000602082019050919050565b6000612a6483856129f2565b9350612a6f82612a03565b8060005b85811015612aa857612a858284612a34565b612a8f8882612a1c565b9750612a9a83612a4b565b925050600181019050612a73565b5085925050509392505050565b60006020820190508181036000830152612ad0818486612a58565b90509392505050565b7f4272696467653a2073657420697320686973746f726963000000000000000000600082015250565b6000612b0f60178361283a565b9150612b1a82612ad9565b602082019050919050565b60006020820190508181036000830152612b3e81612b02565b9050919050565b7f4272696467653a206f6e6c79206272696467652063616e2063616c6c00000000600082015250565b6000612b7b601c8361283a565b9150612b8682612b45565b602082019050919050565b60006020820190508181036000830152612baa81612b6e565b9050919050565b7f4272696467653a20736f75726365206d7573742062652070616c6c6574000000600082015250565b6000612be7601d8361283a565b9150612bf282612bb1565b602082019050919050565b60006020820190508181036000830152612c1681612bda565b9050919050565b6000601f19601f8301169050919050565b7f4e487b7100000000000000000000000000000000000000000000000000000000600052604160045260246000fd5b612c6682612c1d565b810181811067ffffffffffffffff82111715612c8557612c84612c2e565b5b80604052505050565b6000612c98612248565b9050612ca48282612c5d565b919050565b600067ffffffffffffffff821115612cc457612cc3612c2e565b5b602082029050602081019050919050565b6000612ce8612ce384612ca9565b612c8e565b90508083825260208201905060208402830185811115612d0b57612d0a612439565b5b835b81811015612d345780612d208882612394565b845260208401935050602081019050612d0d565b5050509392505050565b600082601f830112612d5357612d5261242f565b5b8135612d63848260208601612cd5565b91505092915050565b60008060408385031215612d8357612d82612252565b5b600083013567ffffffffffffffff811115612da157612da0612257565b5b612dad85828601612d3e565b9250506020612dbe858286016124bb565b9150509250929050565b7f4272696467653a206d75737420737570706c7920627269646765206665650000600082015250565b6000612dfe601e8361283a565b9150612e0982612dc8565b602082019050919050565b60006020820190508181036000830152612e2d81612df1565b9050919050565b7f4272696467653a20656d707479206d6573736167650000000000000000000000600082015250565b6000612e6a60158361283a565b9150612e7582612e34565b602082019050919050565b60006020820190508181036000830152612e9981612e5d565b9050919050565b600060208284031215612eb657612eb5612252565b5b6000612ec4848285016124bb565b91505092915050565b600082825260208201905092915050565b82818337600083830152505050565b6000612ef98385612ecd565b9350612f06838584612ede565b612f0f83612c1d565b840190509392505050565b600060a082019050612f2f60008301896126d8565b612f3c60208301886126d8565b8181036040830152612f4f818688612eed565b9050612f5e6060830185612530565b612f6b6080830184612321565b979650505050505050565b60006020820190508181036000830152612f91818486612eed565b90509392505050565b6000604082019050612faf60008301866126d8565b8181036020830152612fc2818486612eed565b9050949350505050565b7f4272696467653a2070657263656e74206d757374206265203c3d203130300000600082015250565b6000613002601e8361283a565b915061300d82612fcc565b602082019050919050565b6000602082019050818103600083015261303181612ff5565b9050919050565b7f4272696467653a2062726964676520696e616374697665000000000000000000600082015250565b600061306e60178361283a565b915061307982613038565b602082019050919050565b6000602082019050818103600083015261309d81613061565b9050919050565b7f4272696467653a206d73672065786365656473206d6178206c656e6774680000600082015250565b60006130da601e8361283a565b91506130e5826130a4565b602082019050919050565b60006020820190508181036000830152613109816130cd565b9050919050565b7f4272696467653a20696e73756666696369656e74206d65737361676520666565600082015250565b600061314660208361283a565b915061315182613110565b602082019050919050565b6000602082019050818103600083015261317581613139565b9050919050565b600061318782612317565b91507fffffffffffffffffffffffffffffffffffffffffffffffffffffffffffffffff82036131b9576131b8612923565b5b600182019050919050565b600060a0820190506131d96000830189612321565b6131e660208301886126d8565b6131f360408301876126d8565b8181036060830152613206818587612eed565b90506132156080830184612321565b979650505050505050565b600061322b82612317565b915061323683612317565b925082820390508181111561324e5761324d612923565b5b92915050565b600081905092915050565b50565b600061326f600083613254565b915061327a8261325f565b600082019050919050565b600061329082613262565b9150819050919050565b7f4272696467653a204661696c656420746f2073656e64206d7367206665657300600082015250565b60006132d0601f8361283a565b91506132db8261329a565b602082019050919050565b600060208201905081810360008301526132ff816132c3565b9050919050565b7f4f776e61626c653a206e6577206f776e657220697320746865207a65726f206160008201527f6464726573730000000000000000000000000000000000000000000000000000602082015250565b600061336260268361283a565b915061336d82613306565b604082019050919050565b6000602082019050818103600083015261339181613355565b9050919050565b7f4272696467653a206661696c656420746f2073656e6420457468657200000000600082015250565b60006133ce601c8361283a565b91506133d982613398565b602082019050919050565b600060208201905081810360008301526133fd816133c1565b9050919050565b6000819050919050565b600061342961342461341f8461234b565b613404565b61234b565b9050919050565b600061343b8261340e565b9050919050565b600061344d82613430565b9050919050565b61345d81613442565b82525050565b60006040820190506134786000830185613454565b6134856020830184612321565b9392505050565b7f4f776e61626c653a2063616c6c6572206973206e6f7420746865206f776e6572600082015250565b60006134c260208361283a565b91506134cd8261348c565b602082019050919050565b600060208201905081810360008301526134f1816134b5565b9050919050565b7f5265656e7472616e637947756172643a207265656e7472616e742063616c6c00600082015250565b600061352e601f8361283a565b9150613539826134f8565b602082019050919050565b6000602082019050818103600083015261355d81613521565b9050919050565b7f4272696467653a2076616c696461746f7220736574206964207265706c61796560008201527f6400000000000000000000000000000000000000000000000000000000000000602082015250565b60006135c060218361283a565b91506135cb82613564565b604082019050919050565b600060208201905081810360008301526135ef816135b3565b9050919050565b600081519050919050565b6000819050602082019050919050565b6000602082019050919050565b6000613629826135f6565b61363381856129f2565b935061363e83613601565b8060005b8381101561366f5781516136568882612a1c565b975061366183613611565b925050600181019050613642565b5085935050505092915050565b60006020820190508181036000830152613696818461361e565b905092915050565b7f4272696467653a204661696c656420746f2073656e6420726577617264000000600082015250565b60006136d4601d8361283a565b91506136df8261369e565b602082019050919050565b60006020820190508181036000830152613703816136c7565b9050919050565b600080fd5b600080fd5b600080fd5b600080833560016020038436030381126137365761373561370a565b5b80840192508235915067ffffffffffffffff8211156137585761375761370f565b5b60208301925060208202360383131561377457613773613714565b5b509250929050565b7f4272696467653a206576656e744964207265706c617965640000000000000000600082015250565b60006137b260188361283a565b91506137bd8261377c565b602082019050919050565b600060208201905081810360008301526137e1816137a5565b9050919050565b7f4272696467653a206675747572652076616c696461746f722073657400000000600082015250565b600061381e601c8361283a565b9150613829826137e8565b602082019050919050565b6000602082019050818103600083015261384d81613811565b9050919050565b600061385f82612494565b915061386a83612494565b9250828203905063ffffffff81111561388657613885612923565b5b92915050565b7f4272696467653a20657870697265642070726f6f660000000000000000000000600082015250565b60006138c260158361283a565b91506138cd8261388c565b602082019050919050565b600060208201905081810360008301526138f1816138b5565b9050919050565b7f4272696467653a20696e76616c69642076616c696461746f7220736574000000600082015250565b600061392e601d8361283a565b9150613939826138f8565b602082019050919050565b6000602082019050818103600083015261395d81613921565b9050919050565b7f4272696467653a20756e65787065637465642076616c696461746f722064696760008201527f6573740000000000000000000000000000000000000000000000000000000000602082015250565b60006139c060238361283a565b91506139cb82613964565b604082019050919050565b600060208201905081810360008301526139ef816139b3565b9050919050565b6000613a0182612317565b9150613a0c83612317565b9250828202613a1a81612317565b91508282048414831517613a3157613a30612923565b5b5092915050565b7f4e487b7100000000000000000000000000000000000000000000000000000000600052601260045260246000fd5b6000613a7282612317565b9150613a7d83612317565b925082613a8d57613a8c613a38565b5b828204905092915050565b60008083356001602003843603038112613ab557613ab461370a565b5b80840192508235915067ffffffffffffffff821115613ad757613ad661370f565b5b602083019250602082023603831315613af357613af2613714565b5b509250929050565b7f4e487b7100000000000000000000000000000000000000000000000000000000600052603260045260246000fd5b60008083356001602003843603038112613b4757613b4661370a565b5b80840192508235915067ffffffffffffffff821115613b6957613b6861370f565b5b602083019250602082023603831315613b8557613b84613714565b5b509250929050565b600060ff82169050919050565b613ba381613b8d565b8114613bae57600080fd5b50565b600081359050613bc081613b9a565b92915050565b600060208284031215613bdc57613bdb612252565b5b6000613bea84828501613bb1565b91505092915050565b7f4272696467653a207369676e617475726520696e76616c696400000000000000600082015250565b6000613c2960198361283a565b9150613c3482613bf3565b602082019050919050565b60006020820190508181036000830152613c5881613c1c565b9050919050565b7f4272696467653a206e6f7420656e6f756768207369676e617475726573000000600082015250565b6000613c95601d8361283a565b9150613ca082613c5f565b602082019050919050565b60006020820190508181036000830152613cc481613c88565b9050919050565b613cd481613b8d565b82525050565b6000608082019050613cef600083018761270c565b613cfc6020830186613ccb565b613d09604083018561270c565b613d16606083018461270c565b95945050505050565b7f4e487b7100000000000000000000000000000000000000000000000000000000600052602160045260246000fd5b7f45434453413a20696e76616c6964207369676e61747572650000000000000000600082015250565b6000613d8460188361283a565b9150613d8f82613d4e565b602082019050919050565b60006020820190508181036000830152613db381613d77565b9050919050565b7f45434453413a20696e76616c6964207369676e6174757265206c656e67746800600082015250565b6000613df0601f8361283a565b9150613dfb82613dba565b602082019050919050565b60006020820190508181036000830152613e1f81613de3565b9050919050565b7f45434453413a20696e76616c6964207369676e6174757265202773272076616c60008201527f7565000000000000000000000000000000000000000000000000000000000000602082015250565b6000613e8260228361283a565b9150613e8d82613e26565b604082019050919050565b60006020820190508181036000830152613eb181613e75565b9050919050565b7f45434453413a20696e76616c6964207369676e6174757265202776272076616c60008201527f7565000000000000000000000000000000000000000000000000000000000000602082015250565b6000613f1460228361283a565b9150613f1f82613eb8565b604082019050919050565b60006020820190508181036000830152613f4381613f07565b905091905056fea2646970667358221220f9a8d1b86a248b8c1da50bc478fabe85896722e6801967a7060316a27baa54eb64736f6c63430008110033",
      "opcodes": "PUSH1 0x80 PUSH1 0x40 MSTORE PUSH7 0xE35FA931A0000 PUSH1 0x6 SSTORE PUSH1 0x3C PUSH1 0x7 SSTORE PUSH1 0x7 PUSH1 0x8 SSTORE PUSH1 0x0 PUSH1 0x9 PUSH1 0x0 PUSH2 0x100 EXP DUP2 SLOAD DUP2 PUSH1 0xFF MUL NOT AND SWAP1 DUP4 ISZERO ISZERO MUL OR SWAP1 SSTORE POP PUSH8 0xDE0B6B3A7640000 PUSH1 0xA SSTORE PUSH20 0x6D6F646C65746879627264670000000000000000 PUSH1 0xB PUSH1 0x0 PUSH2 0x100 EXP DUP2 SLOAD DUP2 PUSH20 0xFFFFFFFFFFFFFFFFFFFFFFFFFFFFFFFFFFFFFFFF MUL NOT AND SWAP1 DUP4 PUSH20 0xFFFFFFFFFFFFFFFFFFFFFFFFFFFFFFFFFFFFFFFF AND MUL OR SWAP1 SSTORE POP PUSH2 0x400 PUSH1 0xC SSTORE PUSH7 0x110D9316EC000 PUSH1 0xD SSTORE CALLVALUE DUP1 ISZERO PUSH3 0xB3 JUMPI PUSH1 0x0 DUP1 REVERT JUMPDEST POP PUSH3 0xD4 PUSH3 0xC8 PUSH3 0xE1 PUSH1 0x20 SHL PUSH1 0x20 SHR JUMP JUMPDEST PUSH3 0xE9 PUSH1 0x20 SHL PUSH1 0x20 SHR JUMP JUMPDEST PUSH1 0x1 DUP1 DUP2 SWAP1 SSTORE POP PUSH3 0x1AD JUMP JUMPDEST PUSH1 0x0 CALLER SWAP1 POP SWAP1 JUMP JUMPDEST PUSH1 0x0 DUP1 PUSH1 0x0 SWAP1 SLOAD SWAP1 PUSH2 0x100 EXP SWAP1 DIV PUSH20 0xFFFFFFFFFFFFFFFFFFFFFFFFFFFFFFFFFFFFFFFF AND SWAP1 POP DUP2 PUSH1 0x0 DUP1 PUSH2 0x100 EXP DUP2 SLOAD DUP2 PUSH20 0xFFFFFFFFFFFFFFFFFFFFFFFFFFFFFFFFFFFFFFFF MUL NOT AND SWAP1 DUP4 PUSH20 0xFFFFFFFFFFFFFFFFFFFFFFFFFFFFFFFFFFFFFFFF AND MUL OR SWAP1 SSTORE POP DUP2 PUSH20 0xFFFFFFFFFFFFFFFFFFFFFFFFFFFFFFFFFFFFFFFF AND DUP2 PUSH20 0xFFFFFFFFFFFFFFFFFFFFFFFFFFFFFFFFFFFFFFFF AND PUSH32 0x8BE0079C531659141344CD1FD0A4F28419497F9722A3DAAFE3B4186F6B6457E0 PUSH1 0x40 MLOAD PUSH1 0x40 MLOAD DUP1 SWAP2 SUB SWAP1 LOG3 POP POP JUMP JUMPDEST PUSH2 0x3F80 DUP1 PUSH3 0x1BD PUSH1 0x0 CODECOPY PUSH1 0x0 RETURN INVALID PUSH1 0x80 PUSH1 0x40 MSTORE PUSH1 0x4 CALLDATASIZE LT PUSH2 0x1F9 JUMPI PUSH1 0x0 CALLDATALOAD PUSH1 0xE0 SHR DUP1 PUSH4 0x7755618B GT PUSH2 0x10D JUMPI DUP1 PUSH4 0x9C11BC30 GT PUSH2 0xA0 JUMPI DUP1 PUSH4 0xCFC16CEA GT PUSH2 0x6F JUMPI DUP1 PUSH4 0xCFC16CEA EQ PUSH2 0x696 JUMPI DUP1 PUSH4 0xD87500DB EQ PUSH2 0x6C1 JUMPI DUP1 PUSH4 0xF0BDB2D1 EQ PUSH2 0x6FE JUMPI DUP1 PUSH4 0xF2FDE38B EQ PUSH2 0x727 JUMPI DUP1 PUSH4 0xFA09E630 EQ PUSH2 0x750 JUMPI PUSH2 0x1F9 JUMP JUMPDEST DUP1 PUSH4 0x9C11BC30 EQ PUSH2 0x5FD JUMPI DUP1 PUSH4 0xACEC338A EQ PUSH2 0x626 JUMPI DUP1 PUSH4 0xBB5DDB0F EQ PUSH2 0x64F JUMPI DUP1 PUSH4 0xC6C0F59E EQ PUSH2 0x66B JUMPI PUSH2 0x1F9 JUMP JUMPDEST DUP1 PUSH4 0x8DA5CB5B GT PUSH2 0xDC JUMPI DUP1 PUSH4 0x8DA5CB5B EQ PUSH2 0x543 JUMPI DUP1 PUSH4 0x960BFE04 EQ PUSH2 0x56E JUMPI DUP1 PUSH4 0x996B2F94 EQ PUSH2 0x597 JUMPI DUP1 PUSH4 0x998CDF83 EQ PUSH2 0x5D4 JUMPI PUSH2 0x1F9 JUMP JUMPDEST DUP1 PUSH4 0x7755618B EQ PUSH2 0x4A8 JUMPI DUP1 PUSH4 0x823D2FC8 EQ PUSH2 0x4D1 JUMPI DUP1 PUSH4 0x82B12DD7 EQ PUSH2 0x4ED JUMPI DUP1 PUSH4 0x87B50ACB EQ PUSH2 0x518 JUMPI PUSH2 0x1F9 JUMP JUMPDEST DUP1 PUSH4 0x4008B03F GT PUSH2 0x190 JUMPI DUP1 PUSH4 0x61AB5A78 GT PUSH2 0x15F JUMPI DUP1 PUSH4 0x61AB5A78 EQ PUSH2 0x3EB JUMPI DUP1 PUSH4 0x650BD364 EQ PUSH2 0x414 JUMPI DUP1 PUSH4 0x6A70FEF2 EQ PUSH2 0x43D JUMPI DUP1 PUSH4 0x715018A6 EQ PUSH2 0x468 JUMPI DUP1 PUSH4 0x728952F8 EQ PUSH2 0x47F JUMPI PUSH2 0x1F9 JUMP JUMPDEST DUP1 PUSH4 0x4008B03F EQ PUSH2 0x343 JUMPI DUP1 PUSH4 0x4ACF7721 EQ PUSH2 0x36C JUMPI DUP1 PUSH4 0x50DCB027 EQ PUSH2 0x395 JUMPI DUP1 PUSH4 0x5F7E9399 EQ PUSH2 0x3C0 JUMPI PUSH2 0x1F9 JUMP JUMPDEST DUP1 PUSH4 0x2C05F9A2 GT PUSH2 0x1CC JUMPI DUP1 PUSH4 0x2C05F9A2 EQ PUSH2 0x29B JUMPI DUP1 PUSH4 0x2EE111ED EQ PUSH2 0x2C6 JUMPI DUP1 PUSH4 0x3301A464 EQ PUSH2 0x2EF JUMPI DUP1 PUSH4 0x3AB578AA EQ PUSH2 0x318 JUMPI PUSH2 0x1F9 JUMP JUMPDEST DUP1 PUSH4 0x1FFC9A7 EQ PUSH2 0x1FE JUMPI DUP1 PUSH4 0x2FB0C5E EQ PUSH2 0x23B JUMPI DUP1 PUSH4 0x6E30DFC EQ PUSH2 0x266 JUMPI DUP1 PUSH4 0x1D1D4E29 EQ PUSH2 0x270 JUMPI JUMPDEST PUSH1 0x0 DUP1 REVERT JUMPDEST CALLVALUE DUP1 ISZERO PUSH2 0x20A JUMPI PUSH1 0x0 DUP1 REVERT JUMPDEST POP PUSH2 0x225 PUSH1 0x4 DUP1 CALLDATASIZE SUB DUP2 ADD SWAP1 PUSH2 0x220 SWAP2 SWAP1 PUSH2 0x22B4 JUMP JUMPDEST PUSH2 0x779 JUMP JUMPDEST PUSH1 0x40 MLOAD PUSH2 0x232 SWAP2 SWAP1 PUSH2 0x22FC JUMP JUMPDEST PUSH1 0x40 MLOAD DUP1 SWAP2 SUB SWAP1 RETURN JUMPDEST CALLVALUE DUP1 ISZERO PUSH2 0x247 JUMPI PUSH1 0x0 DUP1 REVERT JUMPDEST POP PUSH2 0x250 PUSH2 0x85B JUMP JUMPDEST PUSH1 0x40 MLOAD PUSH2 0x25D SWAP2 SWAP1 PUSH2 0x22FC JUMP JUMPDEST PUSH1 0x40 MLOAD DUP1 SWAP2 SUB SWAP1 RETURN JUMPDEST PUSH2 0x26E PUSH2 0x86E JUMP JUMPDEST STOP JUMPDEST CALLVALUE DUP1 ISZERO PUSH2 0x27C JUMPI PUSH1 0x0 DUP1 REVERT JUMPDEST POP PUSH2 0x285 PUSH2 0x8E0 JUMP JUMPDEST PUSH1 0x40 MLOAD PUSH2 0x292 SWAP2 SWAP1 PUSH2 0x2330 JUMP JUMPDEST PUSH1 0x40 MLOAD DUP1 SWAP2 SUB SWAP1 RETURN JUMPDEST CALLVALUE DUP1 ISZERO PUSH2 0x2A7 JUMPI PUSH1 0x0 DUP1 REVERT JUMPDEST POP PUSH2 0x2B0 PUSH2 0x8E6 JUMP JUMPDEST PUSH1 0x40 MLOAD PUSH2 0x2BD SWAP2 SWAP1 PUSH2 0x2330 JUMP JUMPDEST PUSH1 0x40 MLOAD DUP1 SWAP2 SUB SWAP1 RETURN JUMPDEST CALLVALUE DUP1 ISZERO PUSH2 0x2D2 JUMPI PUSH1 0x0 DUP1 REVERT JUMPDEST POP PUSH2 0x2ED PUSH1 0x4 DUP1 CALLDATASIZE SUB DUP2 ADD SWAP1 PUSH2 0x2E8 SWAP2 SWAP1 PUSH2 0x23A9 JUMP JUMPDEST PUSH2 0x8EC JUMP JUMPDEST STOP JUMPDEST CALLVALUE DUP1 ISZERO PUSH2 0x2FB JUMPI PUSH1 0x0 DUP1 REVERT JUMPDEST POP PUSH2 0x316 PUSH1 0x4 DUP1 CALLDATASIZE SUB DUP2 ADD SWAP1 PUSH2 0x311 SWAP2 SWAP1 PUSH2 0x2402 JUMP JUMPDEST PUSH2 0x97B JUMP JUMPDEST STOP JUMPDEST CALLVALUE DUP1 ISZERO PUSH2 0x324 JUMPI PUSH1 0x0 DUP1 REVERT JUMPDEST POP PUSH2 0x32D PUSH2 0x9BA JUMP JUMPDEST PUSH1 0x40 MLOAD PUSH2 0x33A SWAP2 SWAP1 PUSH2 0x2330 JUMP JUMPDEST PUSH1 0x40 MLOAD DUP1 SWAP2 SUB SWAP1 RETURN JUMPDEST CALLVALUE DUP1 ISZERO PUSH2 0x34F JUMPI PUSH1 0x0 DUP1 REVERT JUMPDEST POP PUSH2 0x36A PUSH1 0x4 DUP1 CALLDATASIZE SUB DUP2 ADD SWAP1 PUSH2 0x365 SWAP2 SWAP1 PUSH2 0x24D0 JUMP JUMPDEST PUSH2 0x9C0 JUMP JUMPDEST STOP JUMPDEST CALLVALUE DUP1 ISZERO PUSH2 0x378 JUMPI PUSH1 0x0 DUP1 REVERT JUMPDEST POP PUSH2 0x393 PUSH1 0x4 DUP1 CALLDATASIZE SUB DUP2 ADD SWAP1 PUSH2 0x38E SWAP2 SWAP1 PUSH2 0x24D0 JUMP JUMPDEST PUSH2 0xB00 JUMP JUMPDEST STOP JUMPDEST CALLVALUE DUP1 ISZERO PUSH2 0x3A1 JUMPI PUSH1 0x0 DUP1 REVERT JUMPDEST POP PUSH2 0x3AA PUSH2 0xC55 JUMP JUMPDEST PUSH1 0x40 MLOAD PUSH2 0x3B7 SWAP2 SWAP1 PUSH2 0x2330 JUMP JUMPDEST PUSH1 0x40 MLOAD DUP1 SWAP2 SUB SWAP1 RETURN JUMPDEST CALLVALUE DUP1 ISZERO PUSH2 0x3CC JUMPI PUSH1 0x0 DUP1 REVERT JUMPDEST POP PUSH2 0x3D5 PUSH2 0xC5F JUMP JUMPDEST PUSH1 0x40 MLOAD PUSH2 0x3E2 SWAP2 SWAP1 PUSH2 0x253F JUMP JUMPDEST PUSH1 0x40 MLOAD DUP1 SWAP2 SUB SWAP1 RETURN JUMPDEST CALLVALUE DUP1 ISZERO PUSH2 0x3F7 JUMPI PUSH1 0x0 DUP1 REVERT JUMPDEST POP PUSH2 0x412 PUSH1 0x4 DUP1 CALLDATASIZE SUB DUP2 ADD SWAP1 PUSH2 0x40D SWAP2 SWAP1 PUSH2 0x2402 JUMP JUMPDEST PUSH2 0xC75 JUMP JUMPDEST STOP JUMPDEST CALLVALUE DUP1 ISZERO PUSH2 0x420 JUMPI PUSH1 0x0 DUP1 REVERT JUMPDEST POP PUSH2 0x43B PUSH1 0x4 DUP1 CALLDATASIZE SUB DUP2 ADD SWAP1 PUSH2 0x436 SWAP2 SWAP1 PUSH2 0x25B0 JUMP JUMPDEST PUSH2 0xCB4 JUMP JUMPDEST STOP JUMPDEST CALLVALUE DUP1 ISZERO PUSH2 0x449 JUMPI PUSH1 0x0 DUP1 REVERT JUMPDEST POP PUSH2 0x452 PUSH2 0xDD9 JUMP JUMPDEST PUSH1 0x40 MLOAD PUSH2 0x45F SWAP2 SWAP1 PUSH2 0x2330 JUMP JUMPDEST PUSH1 0x40 MLOAD DUP1 SWAP2 SUB SWAP1 RETURN JUMPDEST CALLVALUE DUP1 ISZERO PUSH2 0x474 JUMPI PUSH1 0x0 DUP1 REVERT JUMPDEST POP PUSH2 0x47D PUSH2 0xDDF JUMP JUMPDEST STOP JUMPDEST CALLVALUE DUP1 ISZERO PUSH2 0x48B JUMPI PUSH1 0x0 DUP1 REVERT JUMPDEST POP PUSH2 0x4A6 PUSH1 0x4 DUP1 CALLDATASIZE SUB DUP2 ADD SWAP1 PUSH2 0x4A1 SWAP2 SWAP1 PUSH2 0x2402 JUMP JUMPDEST PUSH2 0xDF3 JUMP JUMPDEST STOP JUMPDEST CALLVALUE DUP1 ISZERO PUSH2 0x4B4 JUMPI PUSH1 0x0 DUP1 REVERT JUMPDEST POP PUSH2 0x4CF PUSH1 0x4 DUP1 CALLDATASIZE SUB DUP2 ADD SWAP1 PUSH2 0x4CA SWAP2 SWAP1 PUSH2 0x2402 JUMP JUMPDEST PUSH2 0xE32 JUMP JUMPDEST STOP JUMPDEST PUSH2 0x4EB PUSH1 0x4 DUP1 CALLDATASIZE SUB DUP2 ADD SWAP1 PUSH2 0x4E6 SWAP2 SWAP1 PUSH2 0x2634 JUMP JUMPDEST PUSH2 0xE71 JUMP JUMPDEST STOP JUMPDEST CALLVALUE DUP1 ISZERO PUSH2 0x4F9 JUMPI PUSH1 0x0 DUP1 REVERT JUMPDEST POP PUSH2 0x502 PUSH2 0x1063 JUMP JUMPDEST PUSH1 0x40 MLOAD PUSH2 0x50F SWAP2 SWAP1 PUSH2 0x2330 JUMP JUMPDEST PUSH1 0x40 MLOAD DUP1 SWAP2 SUB SWAP1 RETURN JUMPDEST CALLVALUE DUP1 ISZERO PUSH2 0x524 JUMPI PUSH1 0x0 DUP1 REVERT JUMPDEST POP PUSH2 0x52D PUSH2 0x1069 JUMP JUMPDEST PUSH1 0x40 MLOAD PUSH2 0x53A SWAP2 SWAP1 PUSH2 0x2330 JUMP JUMPDEST PUSH1 0x40 MLOAD DUP1 SWAP2 SUB SWAP1 RETURN JUMPDEST CALLVALUE DUP1 ISZERO PUSH2 0x54F JUMPI PUSH1 0x0 DUP1 REVERT JUMPDEST POP PUSH2 0x558 PUSH2 0x106F JUMP JUMPDEST PUSH1 0x40 MLOAD PUSH2 0x565 SWAP2 SWAP1 PUSH2 0x26E7 JUMP JUMPDEST PUSH1 0x40 MLOAD DUP1 SWAP2 SUB SWAP1 RETURN JUMPDEST CALLVALUE DUP1 ISZERO PUSH2 0x57A JUMPI PUSH1 0x0 DUP1 REVERT JUMPDEST POP PUSH2 0x595 PUSH1 0x4 DUP1 CALLDATASIZE SUB DUP2 ADD SWAP1 PUSH2 0x590 SWAP2 SWAP1 PUSH2 0x2402 JUMP JUMPDEST PUSH2 0x1098 JUMP JUMPDEST STOP JUMPDEST CALLVALUE DUP1 ISZERO PUSH2 0x5A3 JUMPI PUSH1 0x0 DUP1 REVERT JUMPDEST POP PUSH2 0x5BE PUSH1 0x4 DUP1 CALLDATASIZE SUB DUP2 ADD SWAP1 PUSH2 0x5B9 SWAP2 SWAP1 PUSH2 0x2402 JUMP JUMPDEST PUSH2 0x111B JUMP JUMPDEST PUSH1 0x40 MLOAD PUSH2 0x5CB SWAP2 SWAP1 PUSH2 0x271B JUMP JUMPDEST PUSH1 0x40 MLOAD DUP1 SWAP2 SUB SWAP1 RETURN JUMPDEST CALLVALUE DUP1 ISZERO PUSH2 0x5E0 JUMPI PUSH1 0x0 DUP1 REVERT JUMPDEST POP PUSH2 0x5FB PUSH1 0x4 DUP1 CALLDATASIZE SUB DUP2 ADD SWAP1 PUSH2 0x5F6 SWAP2 SWAP1 PUSH2 0x2402 JUMP JUMPDEST PUSH2 0x1133 JUMP JUMPDEST STOP JUMPDEST CALLVALUE DUP1 ISZERO PUSH2 0x609 JUMPI PUSH1 0x0 DUP1 REVERT JUMPDEST POP PUSH2 0x624 PUSH1 0x4 DUP1 CALLDATASIZE SUB DUP2 ADD SWAP1 PUSH2 0x61F SWAP2 SWAP1 PUSH2 0x2402 JUMP JUMPDEST PUSH2 0x1172 JUMP JUMPDEST STOP JUMPDEST CALLVALUE DUP1 ISZERO PUSH2 0x632 JUMPI PUSH1 0x0 DUP1 REVERT JUMPDEST POP PUSH2 0x64D PUSH1 0x4 DUP1 CALLDATASIZE SUB DUP2 ADD SWAP1 PUSH2 0x648 SWAP2 SWAP1 PUSH2 0x2762 JUMP JUMPDEST PUSH2 0x11B1 JUMP JUMPDEST STOP JUMPDEST PUSH2 0x669 PUSH1 0x4 DUP1 CALLDATASIZE SUB DUP2 ADD SWAP1 PUSH2 0x664 SWAP2 SWAP1 PUSH2 0x25B0 JUMP JUMPDEST PUSH2 0x1205 JUMP JUMPDEST STOP JUMPDEST CALLVALUE DUP1 ISZERO PUSH2 0x677 JUMPI PUSH1 0x0 DUP1 REVERT JUMPDEST POP PUSH2 0x680 PUSH2 0x1356 JUMP JUMPDEST PUSH1 0x40 MLOAD PUSH2 0x68D SWAP2 SWAP1 PUSH2 0x26E7 JUMP JUMPDEST PUSH1 0x40 MLOAD DUP1 SWAP2 SUB SWAP1 RETURN JUMPDEST CALLVALUE DUP1 ISZERO PUSH2 0x6A2 JUMPI PUSH1 0x0 DUP1 REVERT JUMPDEST POP PUSH2 0x6AB PUSH2 0x137C JUMP JUMPDEST PUSH1 0x40 MLOAD PUSH2 0x6B8 SWAP2 SWAP1 PUSH2 0x2330 JUMP JUMPDEST PUSH1 0x40 MLOAD DUP1 SWAP2 SUB SWAP1 RETURN JUMPDEST CALLVALUE DUP1 ISZERO PUSH2 0x6CD JUMPI PUSH1 0x0 DUP1 REVERT JUMPDEST POP PUSH2 0x6E8 PUSH1 0x4 DUP1 CALLDATASIZE SUB DUP2 ADD SWAP1 PUSH2 0x6E3 SWAP2 SWAP1 PUSH2 0x2402 JUMP JUMPDEST PUSH2 0x1382 JUMP JUMPDEST PUSH1 0x40 MLOAD PUSH2 0x6F5 SWAP2 SWAP1 PUSH2 0x22FC JUMP JUMPDEST PUSH1 0x40 MLOAD DUP1 SWAP2 SUB SWAP1 RETURN JUMPDEST CALLVALUE DUP1 ISZERO PUSH2 0x70A JUMPI PUSH1 0x0 DUP1 REVERT JUMPDEST POP PUSH2 0x725 PUSH1 0x4 DUP1 CALLDATASIZE SUB DUP2 ADD SWAP1 PUSH2 0x720 SWAP2 SWAP1 PUSH2 0x27CD JUMP JUMPDEST PUSH2 0x13A2 JUMP JUMPDEST STOP JUMPDEST CALLVALUE DUP1 ISZERO PUSH2 0x733 JUMPI PUSH1 0x0 DUP1 REVERT JUMPDEST POP PUSH2 0x74E PUSH1 0x4 DUP1 CALLDATASIZE SUB DUP2 ADD SWAP1 PUSH2 0x749 SWAP2 SWAP1 PUSH2 0x23A9 JUMP JUMPDEST PUSH2 0x14B8 JUMP JUMPDEST STOP JUMPDEST CALLVALUE DUP1 ISZERO PUSH2 0x75C JUMPI PUSH1 0x0 DUP1 REVERT JUMPDEST POP PUSH2 0x777 PUSH1 0x4 DUP1 CALLDATASIZE SUB DUP2 ADD SWAP1 PUSH2 0x772 SWAP2 SWAP1 PUSH2 0x280D JUMP JUMPDEST PUSH2 0x153B JUMP JUMPDEST STOP JUMPDEST PUSH1 0x0 PUSH32 0x69BC44E000000000000000000000000000000000000000000000000000000000 PUSH28 0xFFFFFFFFFFFFFFFFFFFFFFFFFFFFFFFFFFFFFFFFFFFFFFFFFFFFFFFF NOT AND DUP3 PUSH28 0xFFFFFFFFFFFFFFFFFFFFFFFFFFFFFFFFFFFFFFFFFFFFFFFFFFFFFFFF NOT AND EQ DUP1 PUSH2 0x844 JUMPI POP PUSH32 0x650BD36400000000000000000000000000000000000000000000000000000000 PUSH28 0xFFFFFFFFFFFFFFFFFFFFFFFFFFFFFFFFFFFFFFFFFFFFFFFFFFFFFFFF NOT AND DUP3 PUSH28 0xFFFFFFFFFFFFFFFFFFFFFFFFFFFFFFFFFFFFFFFFFFFFFFFFFFFFFFFF NOT AND EQ JUMPDEST DUP1 PUSH2 0x854 JUMPI POP PUSH2 0x853 DUP3 PUSH2 0x1632 JUMP JUMPDEST JUMPDEST SWAP1 POP SWAP2 SWAP1 POP JUMP JUMPDEST PUSH1 0x9 PUSH1 0x0 SWAP1 SLOAD SWAP1 PUSH2 0x100 EXP SWAP1 DIV PUSH1 0xFF AND DUP2 JUMP JUMPDEST PUSH1 0x0 CALLVALUE GT PUSH2 0x8B1 JUMPI PUSH1 0x40 MLOAD PUSH32 0x8C379A000000000000000000000000000000000000000000000000000000000 DUP2 MSTORE PUSH1 0x4 ADD PUSH2 0x8A8 SWAP1 PUSH2 0x2897 JUMP JUMPDEST PUSH1 0x40 MLOAD DUP1 SWAP2 SUB SWAP1 REVERT JUMPDEST CALLVALUE PUSH32 0x840BE946BBA3DF0D184EB7E6CD7C9E57BB380CF6078516C7441DB5709D585098 PUSH1 0x40 MLOAD PUSH1 0x40 MLOAD DUP1 SWAP2 SUB SWAP1 LOG2 JUMP JUMPDEST PUSH1 0xC SLOAD DUP2 JUMP JUMPDEST PUSH1 0xA SLOAD DUP2 JUMP JUMPDEST PUSH2 0x8F4 PUSH2 0x169C JUMP JUMPDEST DUP1 PUSH1 0xB PUSH1 0x0 PUSH2 0x100 EXP DUP2 SLOAD DUP2 PUSH20 0xFFFFFFFFFFFFFFFFFFFFFFFFFFFFFFFFFFFFFFFF MUL NOT AND SWAP1 DUP4 PUSH20 0xFFFFFFFFFFFFFFFFFFFFFFFFFFFFFFFFFFFFFFFF AND MUL OR SWAP1 SSTORE POP DUP1 PUSH20 0xFFFFFFFFFFFFFFFFFFFFFFFFFFFFFFFFFFFFFFFF AND PUSH32 0x679CB5ACFEBD038830B61DAADD5F2F74E2114862B1C289A5D2DB82BC6EDA32A6 PUSH1 0x40 MLOAD PUSH1 0x40 MLOAD DUP1 SWAP2 SUB SWAP1 LOG2 POP JUMP JUMPDEST PUSH2 0x983 PUSH2 0x169C JUMP JUMPDEST DUP1 PUSH1 0xA DUP2 SWAP1 SSTORE POP DUP1 PUSH32 0x11CFF79CC5C082B5F775AE922A2A6DC80E9F79B9207767278BDF7391DB5467F7 PUSH1 0x40 MLOAD PUSH1 0x40 MLOAD DUP1 SWAP2 SUB SWAP1 LOG2 POP JUMP JUMPDEST PUSH1 0x8 SLOAD DUP2 JUMP JUMPDEST PUSH2 0x9C8 PUSH2 0x169C JUMP JUMPDEST PUSH1 0x0 DUP4 DUP4 SWAP1 POP GT PUSH2 0xA0E JUMPI PUSH1 0x40 MLOAD PUSH32 0x8C379A000000000000000000000000000000000000000000000000000000000 DUP2 MSTORE PUSH1 0x4 ADD PUSH2 0xA05 SWAP1 PUSH2 0x2903 JUMP JUMPDEST PUSH1 0x40 MLOAD DUP1 SWAP2 SUB SWAP1 REVERT JUMPDEST PUSH1 0x3 PUSH1 0x0 SWAP1 SLOAD SWAP1 PUSH2 0x100 EXP SWAP1 DIV PUSH4 0xFFFFFFFF AND PUSH4 0xFFFFFFFF AND PUSH1 0x8 SLOAD DUP3 PUSH4 0xFFFFFFFF AND PUSH2 0xA3B SWAP2 SWAP1 PUSH2 0x2952 JUMP JUMPDEST GT PUSH2 0xA7B JUMPI PUSH1 0x40 MLOAD PUSH32 0x8C379A000000000000000000000000000000000000000000000000000000000 DUP2 MSTORE PUSH1 0x4 ADD PUSH2 0xA72 SWAP1 PUSH2 0x29D2 JUMP JUMPDEST PUSH1 0x40 MLOAD DUP1 SWAP2 SUB SWAP1 REVERT JUMPDEST PUSH1 0x0 DUP4 DUP4 PUSH1 0x40 MLOAD PUSH1 0x20 ADD PUSH2 0xA90 SWAP3 SWAP2 SWAP1 PUSH2 0x2AB5 JUMP JUMPDEST PUSH1 0x40 MLOAD PUSH1 0x20 DUP2 DUP4 SUB SUB DUP2 MSTORE SWAP1 PUSH1 0x40 MSTORE DUP1 MLOAD SWAP1 PUSH1 0x20 ADD KECCAK256 SWAP1 POP DUP1 PUSH1 0x2 PUSH1 0x0 DUP5 PUSH4 0xFFFFFFFF AND DUP2 MSTORE PUSH1 0x20 ADD SWAP1 DUP2 MSTORE PUSH1 0x20 ADD PUSH1 0x0 KECCAK256 DUP2 SWAP1 SSTORE POP DUP2 PUSH4 0xFFFFFFFF AND DUP2 PUSH32 0xF541DEDE932A20DBA17286430555D7AA784B74222F2A34F107D40822F41992E3 PUSH1 0x40 MLOAD PUSH1 0x40 MLOAD DUP1 SWAP2 SUB SWAP1 LOG3 POP POP POP POP JUMP JUMPDEST PUSH2 0xB08 PUSH2 0x169C JUMP JUMPDEST PUSH1 0x0 DUP4 DUP4 SWAP1 POP GT PUSH2 0xB4E JUMPI PUSH1 0x40 MLOAD PUSH32 0x8C379A000000000000000000000000000000000000000000000000000000000 DUP2 MSTORE PUSH1 0x4 ADD PUSH2 0xB45 SWAP1 PUSH2 0x2903 JUMP JUMPDEST PUSH1 0x40 MLOAD DUP1 SWAP2 SUB SWAP1 REVERT JUMPDEST PUSH1 0x3 PUSH1 0x0 SWAP1 SLOAD SWAP1 PUSH2 0x100 EXP SWAP1 DIV PUSH4 0xFFFFFFFF AND PUSH4 0xFFFFFFFF AND DUP2 PUSH4 0xFFFFFFFF AND LT ISZERO PUSH2 0xBAF JUMPI PUSH1 0x40 MLOAD PUSH32 0x8C379A000000000000000000000000000000000000000000000000000000000 DUP2 MSTORE PUSH1 0x4 ADD PUSH2 0xBA6 SWAP1 PUSH2 0x2B25 JUMP JUMPDEST PUSH1 0x40 MLOAD DUP1 SWAP2 SUB SWAP1 REVERT JUMPDEST PUSH1 0x0 DUP4 DUP4 PUSH1 0x40 MLOAD PUSH1 0x20 ADD PUSH2 0xBC4 SWAP3 SWAP2 SWAP1 PUSH2 0x2AB5 JUMP JUMPDEST PUSH1 0x40 MLOAD PUSH1 0x20 DUP2 DUP4 SUB SUB DUP2 MSTORE SWAP1 PUSH1 0x40 MSTORE DUP1 MLOAD SWAP1 PUSH1 0x20 ADD KECCAK256 SWAP1 POP DUP1 PUSH1 0x2 PUSH1 0x0 DUP5 PUSH4 0xFFFFFFFF AND DUP2 MSTORE PUSH1 0x20 ADD SWAP1 DUP2 MSTORE PUSH1 0x20 ADD PUSH1 0x0 KECCAK256 DUP2 SWAP1 SSTORE POP DUP2 PUSH1 0x3 PUSH1 0x0 PUSH2 0x100 EXP DUP2 SLOAD DUP2 PUSH4 0xFFFFFFFF MUL NOT AND SWAP1 DUP4 PUSH4 0xFFFFFFFF AND MUL OR SWAP1 SSTORE POP DUP2 PUSH4 0xFFFFFFFF AND DUP2 PUSH32 0x36885D9A49D239DA5379A6F8F9BB89273332A7E312CB5B8A2D3B0F567E8209F4 PUSH1 0x40 MLOAD PUSH1 0x40 MLOAD DUP1 SWAP2 SUB SWAP1 LOG3 POP POP POP POP JUMP JUMPDEST PUSH1 0x0 PUSH1 0xD SLOAD SWAP1 POP SWAP1 JUMP JUMPDEST PUSH1 0x3 PUSH1 0x0 SWAP1 SLOAD SWAP1 PUSH2 0x100 EXP SWAP1 DIV PUSH4 0xFFFFFFFF AND DUP2 JUMP JUMPDEST PUSH2 0xC7D PUSH2 0x169C JUMP JUMPDEST DUP1 PUSH1 0x4 DUP2 SWAP1 SSTORE POP DUP1 PUSH32 0x6055C66C43187163B022B7D954FF32B4BA5265E175458D1B134CFE8AB72F412 PUSH1 0x40 MLOAD PUSH1 0x40 MLOAD DUP1 SWAP2 SUB SWAP1 LOG2 POP JUMP JUMPDEST ADDRESS PUSH20 0xFFFFFFFFFFFFFFFFFFFFFFFFFFFFFFFFFFFFFFFF AND CALLER PUSH20 0xFFFFFFFFFFFFFFFFFFFFFFFFFFFFFFFFFFFFFFFF AND EQ PUSH2 0xD22 JUMPI PUSH1 0x40 MLOAD PUSH32 0x8C379A000000000000000000000000000000000000000000000000000000000 DUP2 MSTORE PUSH1 0x4 ADD PUSH2 0xD19 SWAP1 PUSH2 0x2B91 JUMP JUMPDEST PUSH1 0x40 MLOAD DUP1 SWAP2 SUB SWAP1 REVERT JUMPDEST PUSH1 0xB PUSH1 0x0 SWAP1 SLOAD SWAP1 PUSH2 0x100 EXP SWAP1 DIV PUSH20 0xFFFFFFFFFFFFFFFFFFFFFFFFFFFFFFFFFFFFFFFF AND PUSH20 0xFFFFFFFFFFFFFFFFFFFFFFFFFFFFFFFFFFFFFFFF AND DUP4 PUSH20 0xFFFFFFFFFFFFFFFFFFFFFFFFFFFFFFFFFFFFFFFF AND EQ PUSH2 0xDB2 JUMPI PUSH1 0x40 MLOAD PUSH32 0x8C379A000000000000000000000000000000000000000000000000000000000 DUP2 MSTORE PUSH1 0x4 ADD PUSH2 0xDA9 SWAP1 PUSH2 0x2BFD JUMP JUMPDEST PUSH1 0x40 MLOAD DUP1 SWAP2 SUB SWAP1 REVERT JUMPDEST PUSH1 0x0 DUP1 DUP4 DUP4 DUP2 ADD SWAP1 PUSH2 0xDC4 SWAP2 SWAP1 PUSH2 0x2D6C JUMP JUMPDEST SWAP2 POP SWAP2 POP PUSH2 0xDD2 DUP3 DUP3 PUSH2 0x171A JUMP JUMPDEST POP POP POP POP POP JUMP JUMPDEST PUSH1 0xE SLOAD DUP2 JUMP JUMPDEST PUSH2 0xDE7 PUSH2 0x169C JUMP JUMPDEST PUSH2 0xDF1 PUSH1 0x0 PUSH2 0x1981 JUMP JUMPDEST JUMP JUMPDEST PUSH2 0xDFB PUSH2 0x169C JUMP JUMPDEST DUP1 PUSH1 0xD DUP2 SWAP1 SSTORE POP DUP1 PUSH32 0xABD57EF278738881488128581F298FAA35BA1BAE2BBEC9FB6E370FF60D531E4B PUSH1 0x40 MLOAD PUSH1 0x40 MLOAD DUP1 SWAP2 SUB SWAP1 LOG2 POP JUMP JUMPDEST PUSH2 0xE3A PUSH2 0x169C JUMP JUMPDEST DUP1 PUSH1 0x8 DUP2 SWAP1 SSTORE POP DUP1 PUSH32 0x1116A77FA86522C55D40463F1B48825870A5D04EA15CA52A166D8ACE7F355FF PUSH1 0x40 MLOAD PUSH1 0x40 MLOAD DUP1 SWAP2 SUB SWAP1 LOG2 POP JUMP JUMPDEST PUSH1 0x6 SLOAD CALLVALUE LT ISZERO DUP1 PUSH2 0xEAD JUMPI POP ADDRESS PUSH20 0xFFFFFFFFFFFFFFFFFFFFFFFFFFFFFFFFFFFFFFFF AND DUP5 PUSH20 0xFFFFFFFFFFFFFFFFFFFFFFFFFFFFFFFFFFFFFFFF AND EQ JUMPDEST PUSH2 0xEEC JUMPI PUSH1 0x40 MLOAD PUSH32 0x8C379A000000000000000000000000000000000000000000000000000000000 DUP2 MSTORE PUSH1 0x4 ADD PUSH2 0xEE3 SWAP1 PUSH2 0x2E14 JUMP JUMPDEST PUSH1 0x40 MLOAD DUP1 SWAP2 SUB SWAP1 REVERT JUMPDEST PUSH1 0x0 DUP4 DUP4 SWAP1 POP GT PUSH2 0xF32 JUMPI PUSH1 0x40 MLOAD PUSH32 0x8C379A000000000000000000000000000000000000000000000000000000000 DUP2 MSTORE PUSH1 0x4 ADD PUSH2 0xF29 SWAP1 PUSH2 0x2E80 JUMP JUMPDEST PUSH1 0x40 MLOAD DUP1 SWAP2 SUB SWAP1 REVERT JUMPDEST PUSH1 0x0 DUP6 DUP6 DUP6 DUP6 DUP6 PUSH1 0x20 ADD PUSH1 0x20 DUP2 ADD SWAP1 PUSH2 0xF4B SWAP2 SWAP1 PUSH2 0x2EA0 JUMP JUMPDEST DUP7 PUSH1 0x0 ADD CALLDATALOAD PUSH1 0x40 MLOAD PUSH1 0x20 ADD PUSH2 0xF65 SWAP7 SWAP6 SWAP5 SWAP4 SWAP3 SWAP2 SWAP1 PUSH2 0x2F1A JUMP JUMPDEST PUSH1 0x40 MLOAD PUSH1 0x20 DUP2 DUP4 SUB SUB DUP2 MSTORE SWAP1 PUSH1 0x40 MSTORE SWAP1 POP PUSH2 0xF80 DUP2 DUP4 PUSH2 0x1A45 JUMP JUMPDEST DUP5 PUSH20 0xFFFFFFFFFFFFFFFFFFFFFFFFFFFFFFFFFFFFFFFF AND DUP7 PUSH20 0xFFFFFFFFFFFFFFFFFFFFFFFFFFFFFFFFFFFFFFFF AND DUP4 PUSH1 0x0 ADD CALLDATALOAD PUSH32 0x3591658888EEBC109961F7116A3E6AAFBBEB08B55E727CF69C44D466A77A90D1 DUP8 DUP8 PUSH1 0x40 MLOAD PUSH2 0xFE4 SWAP3 SWAP2 SWAP1 PUSH2 0x2F76 JUMP JUMPDEST PUSH1 0x40 MLOAD DUP1 SWAP2 SUB SWAP1 LOG4 DUP5 PUSH20 0xFFFFFFFFFFFFFFFFFFFFFFFFFFFFFFFFFFFFFFFF AND PUSH4 0x650BD364 DUP8 DUP7 DUP7 PUSH1 0x40 MLOAD DUP5 PUSH4 0xFFFFFFFF AND PUSH1 0xE0 SHL DUP2 MSTORE PUSH1 0x4 ADD PUSH2 0x1029 SWAP4 SWAP3 SWAP2 SWAP1 PUSH2 0x2F9A JUMP JUMPDEST PUSH1 0x0 PUSH1 0x40 MLOAD DUP1 DUP4 SUB DUP2 PUSH1 0x0 DUP8 DUP1 EXTCODESIZE ISZERO DUP1 ISZERO PUSH2 0x1043 JUMPI PUSH1 0x0 DUP1 REVERT JUMPDEST POP GAS CALL ISZERO DUP1 ISZERO PUSH2 0x1057 JUMPI RETURNDATASIZE PUSH1 0x0 DUP1 RETURNDATACOPY RETURNDATASIZE PUSH1 0x0 REVERT JUMPDEST POP POP POP POP POP POP POP POP POP POP JUMP JUMPDEST PUSH1 0x6 SLOAD DUP2 JUMP JUMPDEST PUSH1 0x4 SLOAD DUP2 JUMP JUMPDEST PUSH1 0x0 DUP1 PUSH1 0x0 SWAP1 SLOAD SWAP1 PUSH2 0x100 EXP SWAP1 DIV PUSH20 0xFFFFFFFFFFFFFFFFFFFFFFFFFFFFFFFFFFFFFFFF AND SWAP1 POP SWAP1 JUMP JUMPDEST PUSH2 0x10A0 PUSH2 0x169C JUMP JUMPDEST PUSH1 0x64 DUP2 GT ISZERO PUSH2 0x10E4 JUMPI PUSH1 0x40 MLOAD PUSH32 0x8C379A000000000000000000000000000000000000000000000000000000000 DUP2 MSTORE PUSH1 0x4 ADD PUSH2 0x10DB SWAP1 PUSH2 0x3018 JUMP JUMPDEST PUSH1 0x40 MLOAD DUP1 SWAP2 SUB SWAP1 REVERT JUMPDEST DUP1 PUSH1 0x7 DUP2 SWAP1 SSTORE POP DUP1 PUSH32 0xADFA8ECB21B6962EBCD0ADBD9AB985B7B4C5B5EB3B0DEAD683171565C7BFE171 PUSH1 0x40 MLOAD PUSH1 0x40 MLOAD DUP1 SWAP2 SUB SWAP1 LOG2 POP JUMP JUMPDEST PUSH1 0x2 PUSH1 0x20 MSTORE DUP1 PUSH1 0x0 MSTORE PUSH1 0x40 PUSH1 0x0 KECCAK256 PUSH1 0x0 SWAP2 POP SWAP1 POP SLOAD DUP2 JUMP JUMPDEST PUSH2 0x113B PUSH2 0x169C JUMP JUMPDEST DUP1 PUSH1 0x6 DUP2 SWAP1 SSTORE POP DUP1 PUSH32 0x42DFB00D085D601E55327921154AE76C1B24270B026C5A0C51CAEE18EB4C401F PUSH1 0x40 MLOAD PUSH1 0x40 MLOAD DUP1 SWAP2 SUB SWAP1 LOG2 POP JUMP JUMPDEST PUSH2 0x117A PUSH2 0x169C JUMP JUMPDEST DUP1 PUSH1 0xC DUP2 SWAP1 SSTORE POP DUP1 PUSH32 0x80E9DC023EEED9CBE4E886F225681C4FA94A046011C6269619C21BEFD6C45181 PUSH1 0x40 MLOAD PUSH1 0x40 MLOAD DUP1 SWAP2 SUB SWAP1 LOG2 POP JUMP JUMPDEST PUSH2 0x11B9 PUSH2 0x169C JUMP JUMPDEST DUP1 PUSH1 0x9 PUSH1 0x0 PUSH2 0x100 EXP DUP2 SLOAD DUP2 PUSH1 0xFF MUL NOT AND SWAP1 DUP4 ISZERO ISZERO MUL OR SWAP1 SSTORE POP DUP1 ISZERO ISZERO PUSH32 0xD06B0DB8A7172C6C142C15CD90B6EFB883B600B978DFCA380621AA4C9F6D8815 PUSH1 0x40 MLOAD PUSH1 0x40 MLOAD DUP1 SWAP2 SUB SWAP1 LOG2 POP JUMP JUMPDEST PUSH1 0x9 PUSH1 0x0 SWAP1 SLOAD SWAP1 PUSH2 0x100 EXP SWAP1 DIV PUSH1 0xFF AND PUSH2 0x1254 JUMPI PUSH1 0x40 MLOAD PUSH32 0x8C379A000000000000000000000000000000000000000000000000000000000 DUP2 MSTORE PUSH1 0x4 ADD PUSH2 0x124B SWAP1 PUSH2 0x3084 JUMP JUMPDEST PUSH1 0x40 MLOAD DUP1 SWAP2 SUB SWAP1 REVERT JUMPDEST PUSH1 0xC SLOAD DUP3 DUP3 SWAP1 POP GT ISZERO PUSH2 0x129C JUMPI PUSH1 0x40 MLOAD PUSH32 0x8C379A000000000000000000000000000000000000000000000000000000000 DUP2 MSTORE PUSH1 0x4 ADD PUSH2 0x1293 SWAP1 PUSH2 0x30F0 JUMP JUMPDEST PUSH1 0x40 MLOAD DUP1 SWAP2 SUB SWAP1 REVERT JUMPDEST PUSH1 0xD SLOAD CALLVALUE LT ISZERO PUSH2 0x12E1 JUMPI PUSH1 0x40 MLOAD PUSH32 0x8C379A000000000000000000000000000000000000000000000000000000000 DUP2 MSTORE PUSH1 0x4 ADD PUSH2 0x12D8 SWAP1 PUSH2 0x315C JUMP JUMPDEST PUSH1 0x40 MLOAD DUP1 SWAP2 SUB SWAP1 REVERT JUMPDEST CALLVALUE PUSH1 0xE PUSH1 0x0 DUP3 DUP3 SLOAD PUSH2 0x12F3 SWAP2 SWAP1 PUSH2 0x2952 JUMP JUMPDEST SWAP3 POP POP DUP2 SWAP1 SSTORE POP PUSH32 0xF2A50CD57A795AD452A0B8586BCD3FE8E3EE00054C01C4712655D7753539DD35 PUSH1 0x4 PUSH1 0x0 DUP2 SLOAD DUP1 SWAP3 SWAP2 SWAP1 PUSH2 0x132E SWAP1 PUSH2 0x317C JUMP JUMPDEST SWAP2 SWAP1 POP SSTORE CALLER DUP6 DUP6 DUP6 CALLVALUE PUSH1 0x40 MLOAD PUSH2 0x1349 SWAP7 SWAP6 SWAP5 SWAP4 SWAP3 SWAP2 SWAP1 PUSH2 0x31C4 JUMP JUMPDEST PUSH1 0x40 MLOAD DUP1 SWAP2 SUB SWAP1 LOG1 POP POP POP JUMP JUMPDEST PUSH1 0xB PUSH1 0x0 SWAP1 SLOAD SWAP1 PUSH2 0x100 EXP SWAP1 DIV PUSH20 0xFFFFFFFFFFFFFFFFFFFFFFFFFFFFFFFFFFFFFFFF AND DUP2 JUMP JUMPDEST PUSH1 0x7 SLOAD DUP2 JUMP JUMPDEST PUSH1 0x5 PUSH1 0x20 MSTORE DUP1 PUSH1 0x0 MSTORE PUSH1 0x40 PUSH1 0x0 KECCAK256 PUSH1 0x0 SWAP2 POP SLOAD SWAP1 PUSH2 0x100 EXP SWAP1 DIV PUSH1 0xFF AND DUP2 JUMP JUMPDEST PUSH2 0x13AA PUSH2 0x169C JUMP JUMPDEST DUP1 PUSH1 0xE PUSH1 0x0 DUP3 DUP3 SLOAD PUSH2 0x13BC SWAP2 SWAP1 PUSH2 0x3220 JUMP JUMPDEST SWAP3 POP POP DUP2 SWAP1 SSTORE POP PUSH1 0x0 DUP3 PUSH20 0xFFFFFFFFFFFFFFFFFFFFFFFFFFFFFFFFFFFFFFFF AND DUP3 PUSH1 0x40 MLOAD PUSH2 0x13E9 SWAP1 PUSH2 0x3285 JUMP JUMPDEST PUSH1 0x0 PUSH1 0x40 MLOAD DUP1 DUP4 SUB DUP2 DUP6 DUP8 GAS CALL SWAP3 POP POP POP RETURNDATASIZE DUP1 PUSH1 0x0 DUP2 EQ PUSH2 0x1426 JUMPI PUSH1 0x40 MLOAD SWAP2 POP PUSH1 0x1F NOT PUSH1 0x3F RETURNDATASIZE ADD AND DUP3 ADD PUSH1 0x40 MSTORE RETURNDATASIZE DUP3 MSTORE RETURNDATASIZE PUSH1 0x0 PUSH1 0x20 DUP5 ADD RETURNDATACOPY PUSH2 0x142B JUMP JUMPDEST PUSH1 0x60 SWAP2 POP JUMPDEST POP POP SWAP1 POP DUP1 PUSH2 0x146F JUMPI PUSH1 0x40 MLOAD PUSH32 0x8C379A000000000000000000000000000000000000000000000000000000000 DUP2 MSTORE PUSH1 0x4 ADD PUSH2 0x1466 SWAP1 PUSH2 0x32E6 JUMP JUMPDEST PUSH1 0x40 MLOAD DUP1 SWAP2 SUB SWAP1 REVERT JUMPDEST DUP2 DUP4 PUSH20 0xFFFFFFFFFFFFFFFFFFFFFFFFFFFFFFFFFFFFFFFF AND PUSH32 0xCC89AFF20F6022EA39EE28E42EBE0013F5E8A32D9388B49D2F6FE08563A54CDF PUSH1 0x40 MLOAD PUSH1 0x40 MLOAD DUP1 SWAP2 SUB SWAP1 LOG3 POP POP POP JUMP JUMPDEST PUSH2 0x14C0 PUSH2 0x169C JUMP JUMPDEST PUSH1 0x0 PUSH20 0xFFFFFFFFFFFFFFFFFFFFFFFFFFFFFFFFFFFFFFFF AND DUP2 PUSH20 0xFFFFFFFFFFFFFFFFFFFFFFFFFFFFFFFFFFFFFFFF AND SUB PUSH2 0x152F JUMPI PUSH1 0x40 MLOAD PUSH32 0x8C379A000000000000000000000000000000000000000000000000000000000 DUP2 MSTORE PUSH1 0x4 ADD PUSH2 0x1526 SWAP1 PUSH2 0x3378 JUMP JUMPDEST PUSH1 0x40 MLOAD DUP1 SWAP2 SUB SWAP1 REVERT JUMPDEST PUSH2 0x1538 DUP2 PUSH2 0x1981 JUMP JUMPDEST POP JUMP JUMPDEST PUSH2 0x1543 PUSH2 0x169C JUMP JUMPDEST PUSH1 0x0 SELFBALANCE SWAP1 POP PUSH1 0x0 DUP3 PUSH20 0xFFFFFFFFFFFFFFFFFFFFFFFFFFFFFFFFFFFFFFFF AND DUP3 PUSH1 0x40 MLOAD PUSH2 0x156E SWAP1 PUSH2 0x3285 JUMP JUMPDEST PUSH1 0x0 PUSH1 0x40 MLOAD DUP1 DUP4 SUB DUP2 DUP6 DUP8 GAS CALL SWAP3 POP POP POP RETURNDATASIZE DUP1 PUSH1 0x0 DUP2 EQ PUSH2 0x15AB JUMPI PUSH1 0x40 MLOAD SWAP2 POP PUSH1 0x1F NOT PUSH1 0x3F RETURNDATASIZE ADD AND DUP3 ADD PUSH1 0x40 MSTORE RETURNDATASIZE DUP3 MSTORE RETURNDATASIZE PUSH1 0x0 PUSH1 0x20 DUP5 ADD RETURNDATACOPY PUSH2 0x15B0 JUMP JUMPDEST PUSH1 0x60 SWAP2 POP JUMPDEST POP POP SWAP1 POP DUP1 PUSH2 0x15F4 JUMPI PUSH1 0x40 MLOAD PUSH32 0x8C379A000000000000000000000000000000000000000000000000000000000 DUP2 MSTORE PUSH1 0x4 ADD PUSH2 0x15EB SWAP1 PUSH2 0x33E4 JUMP JUMPDEST PUSH1 0x40 MLOAD DUP1 SWAP2 SUB SWAP1 REVERT JUMPDEST PUSH32 0x6097061AEDA806B5E9CB4133D9899F332FF0913956567FC0F7EA15E3D19947C DUP4 DUP4 PUSH1 0x40 MLOAD PUSH2 0x1625 SWAP3 SWAP2 SWAP1 PUSH2 0x3463 JUMP JUMPDEST PUSH1 0x40 MLOAD DUP1 SWAP2 SUB SWAP1 LOG1 POP POP POP JUMP JUMPDEST PUSH1 0x0 PUSH32 0x1FFC9A700000000000000000000000000000000000000000000000000000000 PUSH28 0xFFFFFFFFFFFFFFFFFFFFFFFFFFFFFFFFFFFFFFFFFFFFFFFFFFFFFFFF NOT AND DUP3 PUSH28 0xFFFFFFFFFFFFFFFFFFFFFFFFFFFFFFFFFFFFFFFFFFFFFFFFFFFFFFFF NOT AND EQ SWAP1 POP SWAP2 SWAP1 POP JUMP JUMPDEST PUSH2 0x16A4 PUSH2 0x1F24 JUMP JUMPDEST PUSH20 0xFFFFFFFFFFFFFFFFFFFFFFFFFFFFFFFFFFFFFFFF AND PUSH2 0x16C2 PUSH2 0x106F JUMP JUMPDEST PUSH20 0xFFFFFFFFFFFFFFFFFFFFFFFFFFFFFFFFFFFFFFFF AND EQ PUSH2 0x1718 JUMPI PUSH1 0x40 MLOAD PUSH32 0x8C379A000000000000000000000000000000000000000000000000000000000 DUP2 MSTORE PUSH1 0x4 ADD PUSH2 0x170F SWAP1 PUSH2 0x34D8 JUMP JUMPDEST PUSH1 0x40 MLOAD DUP1 SWAP2 SUB SWAP1 REVERT JUMPDEST JUMP JUMPDEST PUSH1 0x2 PUSH1 0x1 SLOAD SUB PUSH2 0x175F JUMPI PUSH1 0x40 MLOAD PUSH32 0x8C379A000000000000000000000000000000000000000000000000000000000 DUP2 MSTORE PUSH1 0x4 ADD PUSH2 0x1756 SWAP1 PUSH2 0x3544 JUMP JUMPDEST PUSH1 0x40 MLOAD DUP1 SWAP2 SUB SWAP1 REVERT JUMPDEST PUSH1 0x2 PUSH1 0x1 DUP2 SWAP1 SSTORE POP PUSH1 0x0 DUP3 MLOAD GT PUSH2 0x17AB JUMPI PUSH1 0x40 MLOAD PUSH32 0x8C379A000000000000000000000000000000000000000000000000000000000 DUP2 MSTORE PUSH1 0x4 ADD PUSH2 0x17A2 SWAP1 PUSH2 0x2903 JUMP JUMPDEST PUSH1 0x40 MLOAD DUP1 SWAP2 SUB SWAP1 REVERT JUMPDEST PUSH1 0x3 PUSH1 0x0 SWAP1 SLOAD SWAP1 PUSH2 0x100 EXP SWAP1 DIV PUSH4 0xFFFFFFFF AND PUSH4 0xFFFFFFFF AND DUP2 PUSH4 0xFFFFFFFF AND GT PUSH2 0x180B JUMPI PUSH1 0x40 MLOAD PUSH32 0x8C379A000000000000000000000000000000000000000000000000000000000 DUP2 MSTORE PUSH1 0x4 ADD PUSH2 0x1802 SWAP1 PUSH2 0x35D6 JUMP JUMPDEST PUSH1 0x40 MLOAD DUP1 SWAP2 SUB SWAP1 REVERT JUMPDEST PUSH1 0x0 DUP3 PUSH1 0x40 MLOAD PUSH1 0x20 ADD PUSH2 0x181E SWAP2 SWAP1 PUSH2 0x367C JUMP JUMPDEST PUSH1 0x40 MLOAD PUSH1 0x20 DUP2 DUP4 SUB SUB DUP2 MSTORE SWAP1 PUSH1 0x40 MSTORE DUP1 MLOAD SWAP1 PUSH1 0x20 ADD KECCAK256 SWAP1 POP DUP1 PUSH1 0x2 PUSH1 0x0 DUP5 PUSH4 0xFFFFFFFF AND DUP2 MSTORE PUSH1 0x20 ADD SWAP1 DUP2 MSTORE PUSH1 0x20 ADD PUSH1 0x0 KECCAK256 DUP2 SWAP1 SSTORE POP DUP2 PUSH1 0x3 PUSH1 0x0 PUSH2 0x100 EXP DUP2 SLOAD DUP2 PUSH4 0xFFFFFFFF MUL NOT AND SWAP1 DUP4 PUSH4 0xFFFFFFFF AND MUL OR SWAP1 SSTORE POP PUSH1 0x0 PUSH2 0x1890 PUSH1 0xE SLOAD SELFBALANCE PUSH2 0x1888 SWAP2 SWAP1 PUSH2 0x3220 JUMP JUMPDEST PUSH1 0xA SLOAD PUSH2 0x1F2C JUMP JUMPDEST SWAP1 POP PUSH1 0x0 ORIGIN PUSH20 0xFFFFFFFFFFFFFFFFFFFFFFFFFFFFFFFFFFFFFFFF AND DUP3 PUSH1 0x40 MLOAD PUSH2 0x18B8 SWAP1 PUSH2 0x3285 JUMP JUMPDEST PUSH1 0x0 PUSH1 0x40 MLOAD DUP1 DUP4 SUB DUP2 DUP6 DUP8 GAS CALL SWAP3 POP POP POP RETURNDATASIZE DUP1 PUSH1 0x0 DUP2 EQ PUSH2 0x18F5 JUMPI PUSH1 0x40 MLOAD SWAP2 POP PUSH1 0x1F NOT PUSH1 0x3F RETURNDATASIZE ADD AND DUP3 ADD PUSH1 0x40 MSTORE RETURNDATASIZE DUP3 MSTORE RETURNDATASIZE PUSH1 0x0 PUSH1 0x20 DUP5 ADD RETURNDATACOPY PUSH2 0x18FA JUMP JUMPDEST PUSH1 0x60 SWAP2 POP JUMPDEST POP POP SWAP1 POP DUP1 PUSH2 0x193E JUMPI PUSH1 0x40 MLOAD PUSH32 0x8C379A000000000000000000000000000000000000000000000000000000000 DUP2 MSTORE PUSH1 0x4 ADD PUSH2 0x1935 SWAP1 PUSH2 0x36EA JUMP JUMPDEST PUSH1 0x40 MLOAD DUP1 SWAP2 SUB SWAP1 REVERT JUMPDEST DUP4 PUSH4 0xFFFFFFFF AND DUP3 DUP5 PUSH32 0x3DAB4E75C61B76A4152C289F3C93392DDAB6386B2423FFAB2CEE4DA9FBB05C71 PUSH1 0x40 MLOAD PUSH1 0x40 MLOAD DUP1 SWAP2 SUB SWAP1 LOG4 POP POP POP PUSH1 0x1 DUP1 DUP2 SWAP1 SSTORE POP POP POP JUMP JUMPDEST PUSH1 0x0 DUP1 PUSH1 0x0 SWAP1 SLOAD SWAP1 PUSH2 0x100 EXP SWAP1 DIV PUSH20 0xFFFFFFFFFFFFFFFFFFFFFFFFFFFFFFFFFFFFFFFF AND SWAP1 POP DUP2 PUSH1 0x0 DUP1 PUSH2 0x100 EXP DUP2 SLOAD DUP2 PUSH20 0xFFFFFFFFFFFFFFFFFFFFFFFFFFFFFFFFFFFFFFFF MUL NOT AND SWAP1 DUP4 PUSH20 0xFFFFFFFFFFFFFFFFFFFFFFFFFFFFFFFFFFFFFFFF AND MUL OR SWAP1 SSTORE POP DUP2 PUSH20 0xFFFFFFFFFFFFFFFFFFFFFFFFFFFFFFFFFFFFFFFF AND DUP2 PUSH20 0xFFFFFFFFFFFFFFFFFFFFFFFFFFFFFFFFFFFFFFFF AND PUSH32 0x8BE0079C531659141344CD1FD0A4F28419497F9722A3DAAFE3B4186F6B6457E0 PUSH1 0x40 MLOAD PUSH1 0x40 MLOAD DUP1 SWAP2 SUB SWAP1 LOG3 POP POP JUMP JUMPDEST PUSH1 0x0 DUP2 PUSH1 0x0 ADD CALLDATALOAD SWAP1 POP PUSH1 0x0 DUP3 PUSH1 0x20 ADD PUSH1 0x20 DUP2 ADD SWAP1 PUSH2 0x1A63 SWAP2 SWAP1 PUSH2 0x2EA0 JUMP JUMPDEST SWAP1 POP PUSH1 0x0 DUP4 DUP1 PUSH1 0xA0 ADD SWAP1 PUSH2 0x1A77 SWAP2 SWAP1 PUSH2 0x3719 JUMP JUMPDEST DUP1 DUP1 PUSH1 0x20 MUL PUSH1 0x20 ADD PUSH1 0x40 MLOAD SWAP1 DUP2 ADD PUSH1 0x40 MSTORE DUP1 SWAP4 SWAP3 SWAP2 SWAP1 DUP2 DUP2 MSTORE PUSH1 0x20 ADD DUP4 DUP4 PUSH1 0x20 MUL DUP1 DUP3 DUP5 CALLDATACOPY PUSH1 0x0 DUP2 DUP5 ADD MSTORE PUSH1 0x1F NOT PUSH1 0x1F DUP3 ADD AND SWAP1 POP DUP1 DUP4 ADD SWAP3 POP POP POP POP POP POP POP SWAP1 POP PUSH1 0x9 PUSH1 0x0 SWAP1 SLOAD SWAP1 PUSH2 0x100 EXP SWAP1 DIV PUSH1 0xFF AND PUSH2 0x1B08 JUMPI PUSH1 0x40 MLOAD PUSH32 0x8C379A000000000000000000000000000000000000000000000000000000000 DUP2 MSTORE PUSH1 0x4 ADD PUSH2 0x1AFF SWAP1 PUSH2 0x3084 JUMP JUMPDEST PUSH1 0x40 MLOAD DUP1 SWAP2 SUB SWAP1 REVERT JUMPDEST PUSH1 0x5 PUSH1 0x0 DUP5 DUP2 MSTORE PUSH1 0x20 ADD SWAP1 DUP2 MSTORE PUSH1 0x20 ADD PUSH1 0x0 KECCAK256 PUSH1 0x0 SWAP1 SLOAD SWAP1 PUSH2 0x100 EXP SWAP1 DIV PUSH1 0xFF AND ISZERO PUSH2 0x1B69 JUMPI PUSH1 0x40 MLOAD PUSH32 0x8C379A000000000000000000000000000000000000000000000000000000000 DUP2 MSTORE PUSH1 0x4 ADD PUSH2 0x1B60 SWAP1 PUSH2 0x37C8 JUMP JUMPDEST PUSH1 0x40 MLOAD DUP1 SWAP2 SUB SWAP1 REVERT JUMPDEST PUSH1 0x3 PUSH1 0x0 SWAP1 SLOAD SWAP1 PUSH2 0x100 EXP SWAP1 DIV PUSH4 0xFFFFFFFF AND PUSH4 0xFFFFFFFF AND DUP3 PUSH4 0xFFFFFFFF AND GT ISZERO PUSH2 0x1BCA JUMPI PUSH1 0x40 MLOAD PUSH32 0x8C379A000000000000000000000000000000000000000000000000000000000 DUP2 MSTORE PUSH1 0x4 ADD PUSH2 0x1BC1 SWAP1 PUSH2 0x3834 JUMP JUMPDEST PUSH1 0x40 MLOAD DUP1 SWAP2 SUB SWAP1 REVERT JUMPDEST PUSH1 0x8 SLOAD DUP3 PUSH1 0x3 PUSH1 0x0 SWAP1 SLOAD SWAP1 PUSH2 0x100 EXP SWAP1 DIV PUSH4 0xFFFFFFFF AND PUSH2 0x1BEB SWAP2 SWAP1 PUSH2 0x3854 JUMP JUMPDEST PUSH4 0xFFFFFFFF AND GT ISZERO PUSH2 0x1C32 JUMPI PUSH1 0x40 MLOAD PUSH32 0x8C379A000000000000000000000000000000000000000000000000000000000 DUP2 MSTORE PUSH1 0x4 ADD PUSH2 0x1C29 SWAP1 PUSH2 0x38D8 JUMP JUMPDEST PUSH1 0x40 MLOAD DUP1 SWAP2 SUB SWAP1 REVERT JUMPDEST PUSH1 0x0 DUP2 MLOAD GT PUSH2 0x1C76 JUMPI PUSH1 0x40 MLOAD PUSH32 0x8C379A000000000000000000000000000000000000000000000000000000000 DUP2 MSTORE PUSH1 0x4 ADD PUSH2 0x1C6D SWAP1 PUSH2 0x3944 JUMP JUMPDEST PUSH1 0x40 MLOAD DUP1 SWAP2 SUB SWAP1 REVERT JUMPDEST PUSH1 0x2 PUSH1 0x0 DUP4 PUSH4 0xFFFFFFFF AND DUP2 MSTORE PUSH1 0x20 ADD SWAP1 DUP2 MSTORE PUSH1 0x20 ADD PUSH1 0x0 KECCAK256 SLOAD DUP2 PUSH1 0x40 MLOAD PUSH1 0x20 ADD PUSH2 0x1CA1 SWAP2 SWAP1 PUSH2 0x367C JUMP JUMPDEST PUSH1 0x40 MLOAD PUSH1 0x20 DUP2 DUP4 SUB SUB DUP2 MSTORE SWAP1 PUSH1 0x40 MSTORE DUP1 MLOAD SWAP1 PUSH1 0x20 ADD KECCAK256 EQ PUSH2 0x1CF7 JUMPI PUSH1 0x40 MLOAD PUSH32 0x8C379A000000000000000000000000000000000000000000000000000000000 DUP2 MSTORE PUSH1 0x4 ADD PUSH2 0x1CEE SWAP1 PUSH2 0x39D6 JUMP JUMPDEST PUSH1 0x40 MLOAD DUP1 SWAP2 SUB SWAP1 REVERT JUMPDEST PUSH1 0x0 DUP6 DUP1 MLOAD SWAP1 PUSH1 0x20 ADD KECCAK256 SWAP1 POP PUSH1 0x0 PUSH1 0x64 PUSH1 0x7 SLOAD DUP5 MLOAD PUSH2 0x1D16 SWAP2 SWAP1 PUSH2 0x39F6 JUMP JUMPDEST PUSH2 0x1D20 SWAP2 SWAP1 PUSH2 0x3A67 JUMP JUMPDEST SWAP1 POP PUSH1 0x0 DUP1 PUSH1 0x0 JUMPDEST DUP6 MLOAD DUP2 LT ISZERO PUSH2 0x1EA9 JUMPI DUP2 DUP10 DUP1 PUSH1 0x60 ADD SWAP1 PUSH2 0x1D42 SWAP2 SWAP1 PUSH2 0x3A98 JUMP JUMPDEST DUP4 DUP2 DUP2 LT PUSH2 0x1D53 JUMPI PUSH2 0x1D52 PUSH2 0x3AFB JUMP JUMPDEST JUMPDEST SWAP1 POP PUSH1 0x20 MUL ADD CALLDATALOAD EQ PUSH2 0x1E98 JUMPI PUSH2 0x1DF9 DUP10 DUP1 PUSH1 0x40 ADD SWAP1 PUSH2 0x1D72 SWAP2 SWAP1 PUSH2 0x3B2A JUMP JUMPDEST DUP4 DUP2 DUP2 LT PUSH2 0x1D83 JUMPI PUSH2 0x1D82 PUSH2 0x3AFB JUMP JUMPDEST JUMPDEST SWAP1 POP PUSH1 0x20 MUL ADD PUSH1 0x20 DUP2 ADD SWAP1 PUSH2 0x1D98 SWAP2 SWAP1 PUSH2 0x3BC6 JUMP JUMPDEST DUP11 DUP1 PUSH1 0x60 ADD SWAP1 PUSH2 0x1DA8 SWAP2 SWAP1 PUSH2 0x3A98 JUMP JUMPDEST DUP5 DUP2 DUP2 LT PUSH2 0x1DB9 JUMPI PUSH2 0x1DB8 PUSH2 0x3AFB JUMP JUMPDEST JUMPDEST SWAP1 POP PUSH1 0x20 MUL ADD CALLDATALOAD DUP12 DUP1 PUSH1 0x80 ADD SWAP1 PUSH2 0x1DD0 SWAP2 SWAP1 PUSH2 0x3A98 JUMP JUMPDEST DUP6 DUP2 DUP2 LT PUSH2 0x1DE1 JUMPI PUSH2 0x1DE0 PUSH2 0x3AFB JUMP JUMPDEST JUMPDEST SWAP1 POP PUSH1 0x20 MUL ADD CALLDATALOAD DUP9 PUSH2 0x1F45 SWAP1 SWAP4 SWAP3 SWAP2 SWAP1 PUSH4 0xFFFFFFFF AND JUMP JUMPDEST PUSH20 0xFFFFFFFFFFFFFFFFFFFFFFFFFFFFFFFFFFFFFFFF AND DUP7 DUP3 DUP2 MLOAD DUP2 LT PUSH2 0x1E22 JUMPI PUSH2 0x1E21 PUSH2 0x3AFB JUMP JUMPDEST JUMPDEST PUSH1 0x20 MUL PUSH1 0x20 ADD ADD MLOAD PUSH20 0xFFFFFFFFFFFFFFFFFFFFFFFFFFFFFFFFFFFFFFFF AND EQ PUSH2 0x1E80 JUMPI PUSH1 0x40 MLOAD PUSH32 0x8C379A000000000000000000000000000000000000000000000000000000000 DUP2 MSTORE PUSH1 0x4 ADD PUSH2 0x1E77 SWAP1 PUSH2 0x3C3F JUMP JUMPDEST PUSH1 0x40 MLOAD DUP1 SWAP2 SUB SWAP1 REVERT JUMPDEST PUSH1 0x1 DUP4 PUSH2 0x1E8D SWAP2 SWAP1 PUSH2 0x2952 JUMP JUMPDEST SWAP3 POP DUP4 DUP4 LT ISZERO PUSH2 0x1EA9 JUMPI JUMPDEST DUP1 PUSH2 0x1EA2 SWAP1 PUSH2 0x317C JUMP JUMPDEST SWAP1 POP PUSH2 0x1D28 JUMP JUMPDEST POP DUP3 DUP3 LT ISZERO PUSH2 0x1EED JUMPI PUSH1 0x40 MLOAD PUSH32 0x8C379A000000000000000000000000000000000000000000000000000000000 DUP2 MSTORE PUSH1 0x4 ADD PUSH2 0x1EE4 SWAP1 PUSH2 0x3CAB JUMP JUMPDEST PUSH1 0x40 MLOAD DUP1 SWAP2 SUB SWAP1 REVERT JUMPDEST PUSH1 0x1 PUSH1 0x5 PUSH1 0x0 DUP10 DUP2 MSTORE PUSH1 0x20 ADD SWAP1 DUP2 MSTORE PUSH1 0x20 ADD PUSH1 0x0 KECCAK256 PUSH1 0x0 PUSH2 0x100 EXP DUP2 SLOAD DUP2 PUSH1 0xFF MUL NOT AND SWAP1 DUP4 ISZERO ISZERO MUL OR SWAP1 SSTORE POP POP POP POP POP POP POP POP POP POP JUMP JUMPDEST PUSH1 0x0 CALLER SWAP1 POP SWAP1 JUMP JUMPDEST PUSH1 0x0 DUP2 DUP4 LT PUSH2 0x1F3B JUMPI DUP2 PUSH2 0x1F3D JUMP JUMPDEST DUP3 JUMPDEST SWAP1 POP SWAP3 SWAP2 POP POP JUMP JUMPDEST PUSH1 0x0 DUP1 PUSH1 0x0 PUSH2 0x1F56 DUP8 DUP8 DUP8 DUP8 PUSH2 0x1F70 JUMP JUMPDEST SWAP2 POP SWAP2 POP PUSH2 0x1F63 DUP2 PUSH2 0x207C JUMP JUMPDEST DUP2 SWAP3 POP POP POP SWAP5 SWAP4 POP POP POP POP JUMP JUMPDEST PUSH1 0x0 DUP1 PUSH32 0x7FFFFFFFFFFFFFFFFFFFFFFFFFFFFFFF5D576E7357A4501DDFE92F46681B20A0 DUP4 PUSH1 0x0 SHR GT ISZERO PUSH2 0x1FAB JUMPI PUSH1 0x0 PUSH1 0x3 SWAP2 POP SWAP2 POP PUSH2 0x2073 JUMP JUMPDEST PUSH1 0x1B DUP6 PUSH1 0xFF AND EQ ISZERO DUP1 ISZERO PUSH2 0x1FC3 JUMPI POP PUSH1 0x1C DUP6 PUSH1 0xFF AND EQ ISZERO JUMPDEST ISZERO PUSH2 0x1FD5 JUMPI PUSH1 0x0 PUSH1 0x4 SWAP2 POP SWAP2 POP PUSH2 0x2073 JUMP JUMPDEST PUSH1 0x0 PUSH1 0x1 DUP8 DUP8 DUP8 DUP8 PUSH1 0x40 MLOAD PUSH1 0x0 DUP2 MSTORE PUSH1 0x20 ADD PUSH1 0x40 MSTORE PUSH1 0x40 MLOAD PUSH2 0x1FFA SWAP5 SWAP4 SWAP3 SWAP2 SWAP1 PUSH2 0x3CDA JUMP JUMPDEST PUSH1 0x20 PUSH1 0x40 MLOAD PUSH1 0x20 DUP2 SUB SWAP1 DUP1 DUP5 SUB SWAP1 DUP6 GAS STATICCALL ISZERO DUP1 ISZERO PUSH2 0x201C JUMPI RETURNDATASIZE PUSH1 0x0 DUP1 RETURNDATACOPY RETURNDATASIZE PUSH1 0x0 REVERT JUMPDEST POP POP POP PUSH1 0x20 PUSH1 0x40 MLOAD SUB MLOAD SWAP1 POP PUSH1 0x0 PUSH20 0xFFFFFFFFFFFFFFFFFFFFFFFFFFFFFFFFFFFFFFFF AND DUP2 PUSH20 0xFFFFFFFFFFFFFFFFFFFFFFFFFFFFFFFFFFFFFFFF AND SUB PUSH2 0x206A JUMPI PUSH1 0x0 PUSH1 0x1 SWAP3 POP SWAP3 POP POP PUSH2 0x2073 JUMP JUMPDEST DUP1 PUSH1 0x0 SWAP3 POP SWAP3 POP POP JUMPDEST SWAP5 POP SWAP5 SWAP3 POP POP POP JUMP JUMPDEST PUSH1 0x0 PUSH1 0x4 DUP2 GT ISZERO PUSH2 0x2090 JUMPI PUSH2 0x208F PUSH2 0x3D1F JUMP JUMPDEST JUMPDEST DUP2 PUSH1 0x4 DUP2 GT ISZERO PUSH2 0x20A3 JUMPI PUSH2 0x20A2 PUSH2 0x3D1F JUMP JUMPDEST JUMPDEST SUB ISZERO PUSH2 0x2245 JUMPI PUSH1 0x1 PUSH1 0x4 DUP2 GT ISZERO PUSH2 0x20BD JUMPI PUSH2 0x20BC PUSH2 0x3D1F JUMP JUMPDEST JUMPDEST DUP2 PUSH1 0x4 DUP2 GT ISZERO PUSH2 0x20D0 JUMPI PUSH2 0x20CF PUSH2 0x3D1F JUMP JUMPDEST JUMPDEST SUB PUSH2 0x2110 JUMPI PUSH1 0x40 MLOAD PUSH32 0x8C379A000000000000000000000000000000000000000000000000000000000 DUP2 MSTORE PUSH1 0x4 ADD PUSH2 0x2107 SWAP1 PUSH2 0x3D9A JUMP JUMPDEST PUSH1 0x40 MLOAD DUP1 SWAP2 SUB SWAP1 REVERT JUMPDEST PUSH1 0x2 PUSH1 0x4 DUP2 GT ISZERO PUSH2 0x2124 JUMPI PUSH2 0x2123 PUSH2 0x3D1F JUMP JUMPDEST JUMPDEST DUP2 PUSH1 0x4 DUP2 GT ISZERO PUSH2 0x2137 JUMPI PUSH2 0x2136 PUSH2 0x3D1F JUMP JUMPDEST JUMPDEST SUB PUSH2 0x2177 JUMPI PUSH1 0x40 MLOAD PUSH32 0x8C379A000000000000000000000000000000000000000000000000000000000 DUP2 MSTORE PUSH1 0x4 ADD PUSH2 0x216E SWAP1 PUSH2 0x3E06 JUMP JUMPDEST PUSH1 0x40 MLOAD DUP1 SWAP2 SUB SWAP1 REVERT JUMPDEST PUSH1 0x3 PUSH1 0x4 DUP2 GT ISZERO PUSH2 0x218B JUMPI PUSH2 0x218A PUSH2 0x3D1F JUMP JUMPDEST JUMPDEST DUP2 PUSH1 0x4 DUP2 GT ISZERO PUSH2 0x219E JUMPI PUSH2 0x219D PUSH2 0x3D1F JUMP JUMPDEST JUMPDEST SUB PUSH2 0x21DE JUMPI PUSH1 0x40 MLOAD PUSH32 0x8C379A000000000000000000000000000000000000000000000000000000000 DUP2 MSTORE PUSH1 0x4 ADD PUSH2 0x21D5 SWAP1 PUSH2 0x3E98 JUMP JUMPDEST PUSH1 0x40 MLOAD DUP1 SWAP2 SUB SWAP1 REVERT JUMPDEST PUSH1 0x4 DUP1 DUP2 GT ISZERO PUSH2 0x21F1 JUMPI PUSH2 0x21F0 PUSH2 0x3D1F JUMP JUMPDEST JUMPDEST DUP2 PUSH1 0x4 DUP2 GT ISZERO PUSH2 0x2204 JUMPI PUSH2 0x2203 PUSH2 0x3D1F JUMP JUMPDEST JUMPDEST SUB PUSH2 0x2244 JUMPI PUSH1 0x40 MLOAD PUSH32 0x8C379A000000000000000000000000000000000000000000000000000000000 DUP2 MSTORE PUSH1 0x4 ADD PUSH2 0x223B SWAP1 PUSH2 0x3F2A JUMP JUMPDEST PUSH1 0x40 MLOAD DUP1 SWAP2 SUB SWAP1 REVERT JUMPDEST JUMPDEST POP JUMP JUMPDEST PUSH1 0x0 PUSH1 0x40 MLOAD SWAP1 POP SWAP1 JUMP JUMPDEST PUSH1 0x0 DUP1 REVERT JUMPDEST PUSH1 0x0 DUP1 REVERT JUMPDEST PUSH1 0x0 PUSH32 0xFFFFFFFF00000000000000000000000000000000000000000000000000000000 DUP3 AND SWAP1 POP SWAP2 SWAP1 POP JUMP JUMPDEST PUSH2 0x2291 DUP2 PUSH2 0x225C JUMP JUMPDEST DUP2 EQ PUSH2 0x229C JUMPI PUSH1 0x0 DUP1 REVERT JUMPDEST POP JUMP JUMPDEST PUSH1 0x0 DUP2 CALLDATALOAD SWAP1 POP PUSH2 0x22AE DUP2 PUSH2 0x2288 JUMP JUMPDEST SWAP3 SWAP2 POP POP JUMP JUMPDEST PUSH1 0x0 PUSH1 0x20 DUP3 DUP5 SUB SLT ISZERO PUSH2 0x22CA JUMPI PUSH2 0x22C9 PUSH2 0x2252 JUMP JUMPDEST JUMPDEST PUSH1 0x0 PUSH2 0x22D8 DUP5 DUP3 DUP6 ADD PUSH2 0x229F JUMP JUMPDEST SWAP2 POP POP SWAP3 SWAP2 POP POP JUMP JUMPDEST PUSH1 0x0 DUP2 ISZERO ISZERO SWAP1 POP SWAP2 SWAP1 POP JUMP JUMPDEST PUSH2 0x22F6 DUP2 PUSH2 0x22E1 JUMP JUMPDEST DUP3 MSTORE POP POP JUMP JUMPDEST PUSH1 0x0 PUSH1 0x20 DUP3 ADD SWAP1 POP PUSH2 0x2311 PUSH1 0x0 DUP4 ADD DUP5 PUSH2 0x22ED JUMP JUMPDEST SWAP3 SWAP2 POP POP JUMP JUMPDEST PUSH1 0x0 DUP2 SWAP1 POP SWAP2 SWAP1 POP JUMP JUMPDEST PUSH2 0x232A DUP2 PUSH2 0x2317 JUMP JUMPDEST DUP3 MSTORE POP POP JUMP JUMPDEST PUSH1 0x0 PUSH1 0x20 DUP3 ADD SWAP1 POP PUSH2 0x2345 PUSH1 0x0 DUP4 ADD DUP5 PUSH2 0x2321 JUMP JUMPDEST SWAP3 SWAP2 POP POP JUMP JUMPDEST PUSH1 0x0 PUSH20 0xFFFFFFFFFFFFFFFFFFFFFFFFFFFFFFFFFFFFFFFF DUP3 AND SWAP1 POP SWAP2 SWAP1 POP JUMP JUMPDEST PUSH1 0x0 PUSH2 0x2376 DUP3 PUSH2 0x234B JUMP JUMPDEST SWAP1 POP SWAP2 SWAP1 POP JUMP JUMPDEST PUSH2 0x2386 DUP2 PUSH2 0x236B JUMP JUMPDEST DUP2 EQ PUSH2 0x2391 JUMPI PUSH1 0x0 DUP1 REVERT JUMPDEST POP JUMP JUMPDEST PUSH1 0x0 DUP2 CALLDATALOAD SWAP1 POP PUSH2 0x23A3 DUP2 PUSH2 0x237D JUMP JUMPDEST SWAP3 SWAP2 POP POP JUMP JUMPDEST PUSH1 0x0 PUSH1 0x20 DUP3 DUP5 SUB SLT ISZERO PUSH2 0x23BF JUMPI PUSH2 0x23BE PUSH2 0x2252 JUMP JUMPDEST JUMPDEST PUSH1 0x0 PUSH2 0x23CD DUP5 DUP3 DUP6 ADD PUSH2 0x2394 JUMP JUMPDEST SWAP2 POP POP SWAP3 SWAP2 POP POP JUMP JUMPDEST PUSH2 0x23DF DUP2 PUSH2 0x2317 JUMP JUMPDEST DUP2 EQ PUSH2 0x23EA JUMPI PUSH1 0x0 DUP1 REVERT JUMPDEST POP JUMP JUMPDEST PUSH1 0x0 DUP2 CALLDATALOAD SWAP1 POP PUSH2 0x23FC DUP2 PUSH2 0x23D6 JUMP JUMPDEST SWAP3 SWAP2 POP POP JUMP JUMPDEST PUSH1 0x0 PUSH1 0x20 DUP3 DUP5 SUB SLT ISZERO PUSH2 0x2418 JUMPI PUSH2 0x2417 PUSH2 0x2252 JUMP JUMPDEST JUMPDEST PUSH1 0x0 PUSH2 0x2426 DUP5 DUP3 DUP6 ADD PUSH2 0x23ED JUMP JUMPDEST SWAP2 POP POP SWAP3 SWAP2 POP POP JUMP JUMPDEST PUSH1 0x0 DUP1 REVERT JUMPDEST PUSH1 0x0 DUP1 REVERT JUMPDEST PUSH1 0x0 DUP1 REVERT JUMPDEST PUSH1 0x0 DUP1 DUP4 PUSH1 0x1F DUP5 ADD SLT PUSH2 0x2454 JUMPI PUSH2 0x2453 PUSH2 0x242F JUMP JUMPDEST JUMPDEST DUP3 CALLDATALOAD SWAP1 POP PUSH8 0xFFFFFFFFFFFFFFFF DUP2 GT ISZERO PUSH2 0x2471 JUMPI PUSH2 0x2470 PUSH2 0x2434 JUMP JUMPDEST JUMPDEST PUSH1 0x20 DUP4 ADD SWAP2 POP DUP4 PUSH1 0x20 DUP3 MUL DUP4 ADD GT ISZERO PUSH2 0x248D JUMPI PUSH2 0x248C PUSH2 0x2439 JUMP JUMPDEST JUMPDEST SWAP3 POP SWAP3 SWAP1 POP JUMP JUMPDEST PUSH1 0x0 PUSH4 0xFFFFFFFF DUP3 AND SWAP1 POP SWAP2 SWAP1 POP JUMP JUMPDEST PUSH2 0x24AD DUP2 PUSH2 0x2494 JUMP JUMPDEST DUP2 EQ PUSH2 0x24B8 JUMPI PUSH1 0x0 DUP1 REVERT JUMPDEST POP JUMP JUMPDEST PUSH1 0x0 DUP2 CALLDATALOAD SWAP1 POP PUSH2 0x24CA DUP2 PUSH2 0x24A4 JUMP JUMPDEST SWAP3 SWAP2 POP POP JUMP JUMPDEST PUSH1 0x0 DUP1 PUSH1 0x0 PUSH1 0x40 DUP5 DUP7 SUB SLT ISZERO PUSH2 0x24E9 JUMPI PUSH2 0x24E8 PUSH2 0x2252 JUMP JUMPDEST JUMPDEST PUSH1 0x0 DUP5 ADD CALLDATALOAD PUSH8 0xFFFFFFFFFFFFFFFF DUP2 GT ISZERO PUSH2 0x2507 JUMPI PUSH2 0x2506 PUSH2 0x2257 JUMP JUMPDEST JUMPDEST PUSH2 0x2513 DUP7 DUP3 DUP8 ADD PUSH2 0x243E JUMP JUMPDEST SWAP4 POP SWAP4 POP POP PUSH1 0x20 PUSH2 0x2526 DUP7 DUP3 DUP8 ADD PUSH2 0x24BB JUMP JUMPDEST SWAP2 POP POP SWAP3 POP SWAP3 POP SWAP3 JUMP JUMPDEST PUSH2 0x2539 DUP2 PUSH2 0x2494 JUMP JUMPDEST DUP3 MSTORE POP POP JUMP JUMPDEST PUSH1 0x0 PUSH1 0x20 DUP3 ADD SWAP1 POP PUSH2 0x2554 PUSH1 0x0 DUP4 ADD DUP5 PUSH2 0x2530 JUMP JUMPDEST SWAP3 SWAP2 POP POP JUMP JUMPDEST PUSH1 0x0 DUP1 DUP4 PUSH1 0x1F DUP5 ADD SLT PUSH2 0x2570 JUMPI PUSH2 0x256F PUSH2 0x242F JUMP JUMPDEST JUMPDEST DUP3 CALLDATALOAD SWAP1 POP PUSH8 0xFFFFFFFFFFFFFFFF DUP2 GT ISZERO PUSH2 0x258D JUMPI PUSH2 0x258C PUSH2 0x2434 JUMP JUMPDEST JUMPDEST PUSH1 0x20 DUP4 ADD SWAP2 POP DUP4 PUSH1 0x1 DUP3 MUL DUP4 ADD GT ISZERO PUSH2 0x25A9 JUMPI PUSH2 0x25A8 PUSH2 0x2439 JUMP JUMPDEST JUMPDEST SWAP3 POP SWAP3 SWAP1 POP JUMP JUMPDEST PUSH1 0x0 DUP1 PUSH1 0x0 PUSH1 0x40 DUP5 DUP7 SUB SLT ISZERO PUSH2 0x25C9 JUMPI PUSH2 0x25C8 PUSH2 0x2252 JUMP JUMPDEST JUMPDEST PUSH1 0x0 PUSH2 0x25D7 DUP7 DUP3 DUP8 ADD PUSH2 0x2394 JUMP JUMPDEST SWAP4 POP POP PUSH1 0x20 DUP5 ADD CALLDATALOAD PUSH8 0xFFFFFFFFFFFFFFFF DUP2 GT ISZERO PUSH2 0x25F8 JUMPI PUSH2 0x25F7 PUSH2 0x2257 JUMP JUMPDEST JUMPDEST PUSH2 0x2604 DUP7 DUP3 DUP8 ADD PUSH2 0x255A JUMP JUMPDEST SWAP3 POP SWAP3 POP POP SWAP3 POP SWAP3 POP SWAP3 JUMP JUMPDEST PUSH1 0x0 DUP1 REVERT JUMPDEST PUSH1 0x0 PUSH1 0xC0 DUP3 DUP5 SUB SLT ISZERO PUSH2 0x262B JUMPI PUSH2 0x262A PUSH2 0x2610 JUMP JUMPDEST JUMPDEST DUP2 SWAP1 POP SWAP3 SWAP2 POP POP JUMP JUMPDEST PUSH1 0x0 DUP1 PUSH1 0x0 DUP1 PUSH1 0x0 PUSH1 0x80 DUP7 DUP9 SUB SLT ISZERO PUSH2 0x2650 JUMPI PUSH2 0x264F PUSH2 0x2252 JUMP JUMPDEST JUMPDEST PUSH1 0x0 PUSH2 0x265E DUP9 DUP3 DUP10 ADD PUSH2 0x2394 JUMP JUMPDEST SWAP6 POP POP PUSH1 0x20 PUSH2 0x266F DUP9 DUP3 DUP10 ADD PUSH2 0x2394 JUMP JUMPDEST SWAP5 POP POP PUSH1 0x40 DUP7 ADD CALLDATALOAD PUSH8 0xFFFFFFFFFFFFFFFF DUP2 GT ISZERO PUSH2 0x2690 JUMPI PUSH2 0x268F PUSH2 0x2257 JUMP JUMPDEST JUMPDEST PUSH2 0x269C DUP9 DUP3 DUP10 ADD PUSH2 0x255A JUMP JUMPDEST SWAP4 POP SWAP4 POP POP PUSH1 0x60 DUP7 ADD CALLDATALOAD PUSH8 0xFFFFFFFFFFFFFFFF DUP2 GT ISZERO PUSH2 0x26BF JUMPI PUSH2 0x26BE PUSH2 0x2257 JUMP JUMPDEST JUMPDEST PUSH2 0x26CB DUP9 DUP3 DUP10 ADD PUSH2 0x2615 JUMP JUMPDEST SWAP2 POP POP SWAP3 SWAP6 POP SWAP3 SWAP6 SWAP1 SWAP4 POP JUMP JUMPDEST PUSH2 0x26E1 DUP2 PUSH2 0x236B JUMP JUMPDEST DUP3 MSTORE POP POP JUMP JUMPDEST PUSH1 0x0 PUSH1 0x20 DUP3 ADD SWAP1 POP PUSH2 0x26FC PUSH1 0x0 DUP4 ADD DUP5 PUSH2 0x26D8 JUMP JUMPDEST SWAP3 SWAP2 POP POP JUMP JUMPDEST PUSH1 0x0 DUP2 SWAP1 POP SWAP2 SWAP1 POP JUMP JUMPDEST PUSH2 0x2715 DUP2 PUSH2 0x2702 JUMP JUMPDEST DUP3 MSTORE POP POP JUMP JUMPDEST PUSH1 0x0 PUSH1 0x20 DUP3 ADD SWAP1 POP PUSH2 0x2730 PUSH1 0x0 DUP4 ADD DUP5 PUSH2 0x270C JUMP JUMPDEST SWAP3 SWAP2 POP POP JUMP JUMPDEST PUSH2 0x273F DUP2 PUSH2 0x22E1 JUMP JUMPDEST DUP2 EQ PUSH2 0x274A JUMPI PUSH1 0x0 DUP1 REVERT JUMPDEST POP JUMP JUMPDEST PUSH1 0x0 DUP2 CALLDATALOAD SWAP1 POP PUSH2 0x275C DUP2 PUSH2 0x2736 JUMP JUMPDEST SWAP3 SWAP2 POP POP JUMP JUMPDEST PUSH1 0x0 PUSH1 0x20 DUP3 DUP5 SUB SLT ISZERO PUSH2 0x2778 JUMPI PUSH2 0x2777 PUSH2 0x2252 JUMP JUMPDEST JUMPDEST PUSH1 0x0 PUSH2 0x2786 DUP5 DUP3 DUP6 ADD PUSH2 0x274D JUMP JUMPDEST SWAP2 POP POP SWAP3 SWAP2 POP POP JUMP JUMPDEST PUSH1 0x0 PUSH2 0x279A DUP3 PUSH2 0x234B JUMP JUMPDEST SWAP1 POP SWAP2 SWAP1 POP JUMP JUMPDEST PUSH2 0x27AA DUP2 PUSH2 0x278F JUMP JUMPDEST DUP2 EQ PUSH2 0x27B5 JUMPI PUSH1 0x0 DUP1 REVERT JUMPDEST POP JUMP JUMPDEST PUSH1 0x0 DUP2 CALLDATALOAD SWAP1 POP PUSH2 0x27C7 DUP2 PUSH2 0x27A1 JUMP JUMPDEST SWAP3 SWAP2 POP POP JUMP JUMPDEST PUSH1 0x0 DUP1 PUSH1 0x40 DUP4 DUP6 SUB SLT ISZERO PUSH2 0x27E4 JUMPI PUSH2 0x27E3 PUSH2 0x2252 JUMP JUMPDEST JUMPDEST PUSH1 0x0 PUSH2 0x27F2 DUP6 DUP3 DUP7 ADD PUSH2 0x27B8 JUMP JUMPDEST SWAP3 POP POP PUSH1 0x20 PUSH2 0x2803 DUP6 DUP3 DUP7 ADD PUSH2 0x23ED JUMP JUMPDEST SWAP2 POP POP SWAP3 POP SWAP3 SWAP1 POP JUMP JUMPDEST PUSH1 0x0 PUSH1 0x20 DUP3 DUP5 SUB SLT ISZERO PUSH2 0x2823 JUMPI PUSH2 0x2822 PUSH2 0x2252 JUMP JUMPDEST JUMPDEST PUSH1 0x0 PUSH2 0x2831 DUP5 DUP3 DUP6 ADD PUSH2 0x27B8 JUMP JUMPDEST SWAP2 POP POP SWAP3 SWAP2 POP POP JUMP JUMPDEST PUSH1 0x0 DUP3 DUP3 MSTORE PUSH1 0x20 DUP3 ADD SWAP1 POP SWAP3 SWAP2 POP POP JUMP JUMPDEST PUSH32 0x4272696467653A206D75737420656E646F77206E6F6E7A65726F000000000000 PUSH1 0x0 DUP3 ADD MSTORE POP JUMP JUMPDEST PUSH1 0x0 PUSH2 0x2881 PUSH1 0x1A DUP4 PUSH2 0x283A JUMP JUMPDEST SWAP2 POP PUSH2 0x288C DUP3 PUSH2 0x284B JUMP JUMPDEST PUSH1 0x20 DUP3 ADD SWAP1 POP SWAP2 SWAP1 POP JUMP JUMPDEST PUSH1 0x0 PUSH1 0x20 DUP3 ADD SWAP1 POP DUP2 DUP2 SUB PUSH1 0x0 DUP4 ADD MSTORE PUSH2 0x28B0 DUP2 PUSH2 0x2874 JUMP JUMPDEST SWAP1 POP SWAP2 SWAP1 POP JUMP JUMPDEST PUSH32 0x4272696467653A20656D7074792076616C696461746F72207365740000000000 PUSH1 0x0 DUP3 ADD MSTORE POP JUMP JUMPDEST PUSH1 0x0 PUSH2 0x28ED PUSH1 0x1B DUP4 PUSH2 0x283A JUMP JUMPDEST SWAP2 POP PUSH2 0x28F8 DUP3 PUSH2 0x28B7 JUMP JUMPDEST PUSH1 0x20 DUP3 ADD SWAP1 POP SWAP2 SWAP1 POP JUMP JUMPDEST PUSH1 0x0 PUSH1 0x20 DUP3 ADD SWAP1 POP DUP2 DUP2 SUB PUSH1 0x0 DUP4 ADD MSTORE PUSH2 0x291C DUP2 PUSH2 0x28E0 JUMP JUMPDEST SWAP1 POP SWAP2 SWAP1 POP JUMP JUMPDEST PUSH32 0x4E487B7100000000000000000000000000000000000000000000000000000000 PUSH1 0x0 MSTORE PUSH1 0x11 PUSH1 0x4 MSTORE PUSH1 0x24 PUSH1 0x0 REVERT JUMPDEST PUSH1 0x0 PUSH2 0x295D DUP3 PUSH2 0x2317 JUMP JUMPDEST SWAP2 POP PUSH2 0x2968 DUP4 PUSH2 0x2317 JUMP JUMPDEST SWAP3 POP DUP3 DUP3 ADD SWAP1 POP DUP1 DUP3 GT ISZERO PUSH2 0x2980 JUMPI PUSH2 0x297F PUSH2 0x2923 JUMP JUMPDEST JUMPDEST SWAP3 SWAP2 POP POP JUMP JUMPDEST PUSH32 0x4272696467653A2073657420697320696E616374697665000000000000000000 PUSH1 0x0 DUP3 ADD MSTORE POP JUMP JUMPDEST PUSH1 0x0 PUSH2 0x29BC PUSH1 0x17 DUP4 PUSH2 0x283A JUMP JUMPDEST SWAP2 POP PUSH2 0x29C7 DUP3 PUSH2 0x2986 JUMP JUMPDEST PUSH1 0x20 DUP3 ADD SWAP1 POP SWAP2 SWAP1 POP JUMP JUMPDEST PUSH1 0x0 PUSH1 0x20 DUP3 ADD SWAP1 POP DUP2 DUP2 SUB PUSH1 0x0 DUP4 ADD MSTORE PUSH2 0x29EB DUP2 PUSH2 0x29AF JUMP JUMPDEST SWAP1 POP SWAP2 SWAP1 POP JUMP JUMPDEST PUSH1 0x0 DUP3 DUP3 MSTORE PUSH1 0x20 DUP3 ADD SWAP1 POP SWAP3 SWAP2 POP POP JUMP JUMPDEST PUSH1 0x0 DUP2 SWAP1 POP SWAP2 SWAP1 POP JUMP JUMPDEST PUSH2 0x2A16 DUP2 PUSH2 0x236B JUMP JUMPDEST DUP3 MSTORE POP POP JUMP JUMPDEST PUSH1 0x0 PUSH2 0x2A28 DUP4 DUP4 PUSH2 0x2A0D JUMP JUMPDEST PUSH1 0x20 DUP4 ADD SWAP1 POP SWAP3 SWAP2 POP POP JUMP JUMPDEST PUSH1 0x0 PUSH2 0x2A43 PUSH1 0x20 DUP5 ADD DUP5 PUSH2 0x2394 JUMP JUMPDEST SWAP1 POP SWAP3 SWAP2 POP POP JUMP JUMPDEST PUSH1 0x0 PUSH1 0x20 DUP3 ADD SWAP1 POP SWAP2 SWAP1 POP JUMP JUMPDEST PUSH1 0x0 PUSH2 0x2A64 DUP4 DUP6 PUSH2 0x29F2 JUMP JUMPDEST SWAP4 POP PUSH2 0x2A6F DUP3 PUSH2 0x2A03 JUMP JUMPDEST DUP1 PUSH1 0x0 JUMPDEST DUP6 DUP2 LT ISZERO PUSH2 0x2AA8 JUMPI PUSH2 0x2A85 DUP3 DUP5 PUSH2 0x2A34 JUMP JUMPDEST PUSH2 0x2A8F DUP9 DUP3 PUSH2 0x2A1C JUMP JUMPDEST SWAP8 POP PUSH2 0x2A9A DUP4 PUSH2 0x2A4B JUMP JUMPDEST SWAP3 POP POP PUSH1 0x1 DUP2 ADD SWAP1 POP PUSH2 0x2A73 JUMP JUMPDEST POP DUP6 SWAP3 POP POP POP SWAP4 SWAP3 POP POP POP JUMP JUMPDEST PUSH1 0x0 PUSH1 0x20 DUP3 ADD SWAP1 POP DUP2 DUP2 SUB PUSH1 0x0 DUP4 ADD MSTORE PUSH2 0x2AD0 DUP2 DUP5 DUP7 PUSH2 0x2A58 JUMP JUMPDEST SWAP1 POP SWAP4 SWAP3 POP POP POP JUMP JUMPDEST PUSH32 0x4272696467653A2073657420697320686973746F726963000000000000000000 PUSH1 0x0 DUP3 ADD MSTORE POP JUMP JUMPDEST PUSH1 0x0 PUSH2 0x2B0F PUSH1 0x17 DUP4 PUSH2 0x283A JUMP JUMPDEST SWAP2 POP PUSH2 0x2B1A DUP3 PUSH2 0x2AD9 JUMP JUMPDEST PUSH1 0x20 DUP3 ADD SWAP1 POP SWAP2 SWAP1 POP JUMP JUMPDEST PUSH1 0x0 PUSH1 0x20 DUP3 ADD SWAP1 POP DUP2 DUP2 SUB PUSH1 0x0 DUP4 ADD MSTORE PUSH2 0x2B3E DUP2 PUSH2 0x2B02 JUMP JUMPDEST SWAP1 POP SWAP2 SWAP1 POP JUMP JUMPDEST PUSH32 0x4272696467653A206F6E6C79206272696467652063616E2063616C6C00000000 PUSH1 0x0 DUP3 ADD MSTORE POP JUMP JUMPDEST PUSH1 0x0 PUSH2 0x2B7B PUSH1 0x1C DUP4 PUSH2 0x283A JUMP JUMPDEST SWAP2 POP PUSH2 0x2B86 DUP3 PUSH2 0x2B45 JUMP JUMPDEST PUSH1 0x20 DUP3 ADD SWAP1 POP SWAP2 SWAP1 POP JUMP JUMPDEST PUSH1 0x0 PUSH1 0x20 DUP3 ADD SWAP1 POP DUP2 DUP2 SUB PUSH1 0x0 DUP4 ADD MSTORE PUSH2 0x2BAA DUP2 PUSH2 0x2B6E JUMP JUMPDEST SWAP1 POP SWAP2 SWAP1 POP JUMP JUMPDEST PUSH32 0x4272696467653A20736F75726365206D7573742062652070616C6C6574000000 PUSH1 0x0 DUP3 ADD MSTORE POP JUMP JUMPDEST PUSH1 0x0 PUSH2 0x2BE7 PUSH1 0x1D DUP4 PUSH2 0x283A JUMP JUMPDEST SWAP2 POP PUSH2 0x2BF2 DUP3 PUSH2 0x2BB1 JUMP JUMPDEST PUSH1 0x20 DUP3 ADD SWAP1 POP SWAP2 SWAP1 POP JUMP JUMPDEST PUSH1 0x0 PUSH1 0x20 DUP3 ADD SWAP1 POP DUP2 DUP2 SUB PUSH1 0x0 DUP4 ADD MSTORE PUSH2 0x2C16 DUP2 PUSH2 0x2BDA JUMP JUMPDEST SWAP1 POP SWAP2 SWAP1 POP JUMP JUMPDEST PUSH1 0x0 PUSH1 0x1F NOT PUSH1 0x1F DUP4 ADD AND SWAP1 POP SWAP2 SWAP1 POP JUMP JUMPDEST PUSH32 0x4E487B7100000000000000000000000000000000000000000000000000000000 PUSH1 0x0 MSTORE PUSH1 0x41 PUSH1 0x4 MSTORE PUSH1 0x24 PUSH1 0x0 REVERT JUMPDEST PUSH2 0x2C66 DUP3 PUSH2 0x2C1D JUMP JUMPDEST DUP2 ADD DUP2 DUP2 LT PUSH8 0xFFFFFFFFFFFFFFFF DUP3 GT OR ISZERO PUSH2 0x2C85 JUMPI PUSH2 0x2C84 PUSH2 0x2C2E JUMP JUMPDEST JUMPDEST DUP1 PUSH1 0x40 MSTORE POP POP POP JUMP JUMPDEST PUSH1 0x0 PUSH2 0x2C98 PUSH2 0x2248 JUMP JUMPDEST SWAP1 POP PUSH2 0x2CA4 DUP3 DUP3 PUSH2 0x2C5D JUMP JUMPDEST SWAP2 SWAP1 POP JUMP JUMPDEST PUSH1 0x0 PUSH8 0xFFFFFFFFFFFFFFFF DUP3 GT ISZERO PUSH2 0x2CC4 JUMPI PUSH2 0x2CC3 PUSH2 0x2C2E JUMP JUMPDEST JUMPDEST PUSH1 0x20 DUP3 MUL SWAP1 POP PUSH1 0x20 DUP2 ADD SWAP1 POP SWAP2 SWAP1 POP JUMP JUMPDEST PUSH1 0x0 PUSH2 0x2CE8 PUSH2 0x2CE3 DUP5 PUSH2 0x2CA9 JUMP JUMPDEST PUSH2 0x2C8E JUMP JUMPDEST SWAP1 POP DUP1 DUP4 DUP3 MSTORE PUSH1 0x20 DUP3 ADD SWAP1 POP PUSH1 0x20 DUP5 MUL DUP4 ADD DUP6 DUP2 GT ISZERO PUSH2 0x2D0B JUMPI PUSH2 0x2D0A PUSH2 0x2439 JUMP JUMPDEST JUMPDEST DUP4 JUMPDEST DUP2 DUP2 LT ISZERO PUSH2 0x2D34 JUMPI DUP1 PUSH2 0x2D20 DUP9 DUP3 PUSH2 0x2394 JUMP JUMPDEST DUP5 MSTORE PUSH1 0x20 DUP5 ADD SWAP4 POP POP PUSH1 0x20 DUP2 ADD SWAP1 POP PUSH2 0x2D0D JUMP JUMPDEST POP POP POP SWAP4 SWAP3 POP POP POP JUMP JUMPDEST PUSH1 0x0 DUP3 PUSH1 0x1F DUP4 ADD SLT PUSH2 0x2D53 JUMPI PUSH2 0x2D52 PUSH2 0x242F JUMP JUMPDEST JUMPDEST DUP2 CALLDATALOAD PUSH2 0x2D63 DUP5 DUP3 PUSH1 0x20 DUP7 ADD PUSH2 0x2CD5 JUMP JUMPDEST SWAP2 POP POP SWAP3 SWAP2 POP POP JUMP JUMPDEST PUSH1 0x0 DUP1 PUSH1 0x40 DUP4 DUP6 SUB SLT ISZERO PUSH2 0x2D83 JUMPI PUSH2 0x2D82 PUSH2 0x2252 JUMP JUMPDEST JUMPDEST PUSH1 0x0 DUP4 ADD CALLDATALOAD PUSH8 0xFFFFFFFFFFFFFFFF DUP2 GT ISZERO PUSH2 0x2DA1 JUMPI PUSH2 0x2DA0 PUSH2 0x2257 JUMP JUMPDEST JUMPDEST PUSH2 0x2DAD DUP6 DUP3 DUP7 ADD PUSH2 0x2D3E JUMP JUMPDEST SWAP3 POP POP PUSH1 0x20 PUSH2 0x2DBE DUP6 DUP3 DUP7 ADD PUSH2 0x24BB JUMP JUMPDEST SWAP2 POP POP SWAP3 POP SWAP3 SWAP1 POP JUMP JUMPDEST PUSH32 0x4272696467653A206D75737420737570706C7920627269646765206665650000 PUSH1 0x0 DUP3 ADD MSTORE POP JUMP JUMPDEST PUSH1 0x0 PUSH2 0x2DFE PUSH1 0x1E DUP4 PUSH2 0x283A JUMP JUMPDEST SWAP2 POP PUSH2 0x2E09 DUP3 PUSH2 0x2DC8 JUMP JUMPDEST PUSH1 0x20 DUP3 ADD SWAP1 POP SWAP2 SWAP1 POP JUMP JUMPDEST PUSH1 0x0 PUSH1 0x20 DUP3 ADD SWAP1 POP DUP2 DUP2 SUB PUSH1 0x0 DUP4 ADD MSTORE PUSH2 0x2E2D DUP2 PUSH2 0x2DF1 JUMP JUMPDEST SWAP1 POP SWAP2 SWAP1 POP JUMP JUMPDEST PUSH32 0x4272696467653A20656D707479206D6573736167650000000000000000000000 PUSH1 0x0 DUP3 ADD MSTORE POP JUMP JUMPDEST PUSH1 0x0 PUSH2 0x2E6A PUSH1 0x15 DUP4 PUSH2 0x283A JUMP JUMPDEST SWAP2 POP PUSH2 0x2E75 DUP3 PUSH2 0x2E34 JUMP JUMPDEST PUSH1 0x20 DUP3 ADD SWAP1 POP SWAP2 SWAP1 POP JUMP JUMPDEST PUSH1 0x0 PUSH1 0x20 DUP3 ADD SWAP1 POP DUP2 DUP2 SUB PUSH1 0x0 DUP4 ADD MSTORE PUSH2 0x2E99 DUP2 PUSH2 0x2E5D JUMP JUMPDEST SWAP1 POP SWAP2 SWAP1 POP JUMP JUMPDEST PUSH1 0x0 PUSH1 0x20 DUP3 DUP5 SUB SLT ISZERO PUSH2 0x2EB6 JUMPI PUSH2 0x2EB5 PUSH2 0x2252 JUMP JUMPDEST JUMPDEST PUSH1 0x0 PUSH2 0x2EC4 DUP5 DUP3 DUP6 ADD PUSH2 0x24BB JUMP JUMPDEST SWAP2 POP POP SWAP3 SWAP2 POP POP JUMP JUMPDEST PUSH1 0x0 DUP3 DUP3 MSTORE PUSH1 0x20 DUP3 ADD SWAP1 POP SWAP3 SWAP2 POP POP JUMP JUMPDEST DUP3 DUP2 DUP4 CALLDATACOPY PUSH1 0x0 DUP4 DUP4 ADD MSTORE POP POP POP JUMP JUMPDEST PUSH1 0x0 PUSH2 0x2EF9 DUP4 DUP6 PUSH2 0x2ECD JUMP JUMPDEST SWAP4 POP PUSH2 0x2F06 DUP4 DUP6 DUP5 PUSH2 0x2EDE JUMP JUMPDEST PUSH2 0x2F0F DUP4 PUSH2 0x2C1D JUMP JUMPDEST DUP5 ADD SWAP1 POP SWAP4 SWAP3 POP POP POP JUMP JUMPDEST PUSH1 0x0 PUSH1 0xA0 DUP3 ADD SWAP1 POP PUSH2 0x2F2F PUSH1 0x0 DUP4 ADD DUP10 PUSH2 0x26D8 JUMP JUMPDEST PUSH2 0x2F3C PUSH1 0x20 DUP4 ADD DUP9 PUSH2 0x26D8 JUMP JUMPDEST DUP2 DUP2 SUB PUSH1 0x40 DUP4 ADD MSTORE PUSH2 0x2F4F DUP2 DUP7 DUP9 PUSH2 0x2EED JUMP JUMPDEST SWAP1 POP PUSH2 0x2F5E PUSH1 0x60 DUP4 ADD DUP6 PUSH2 0x2530 JUMP JUMPDEST PUSH2 0x2F6B PUSH1 0x80 DUP4 ADD DUP5 PUSH2 0x2321 JUMP JUMPDEST SWAP8 SWAP7 POP POP POP POP POP POP POP JUMP JUMPDEST PUSH1 0x0 PUSH1 0x20 DUP3 ADD SWAP1 POP DUP2 DUP2 SUB PUSH1 0x0 DUP4 ADD MSTORE PUSH2 0x2F91 DUP2 DUP5 DUP7 PUSH2 0x2EED JUMP JUMPDEST SWAP1 POP SWAP4 SWAP3 POP POP POP JUMP JUMPDEST PUSH1 0x0 PUSH1 0x40 DUP3 ADD SWAP1 POP PUSH2 0x2FAF PUSH1 0x0 DUP4 ADD DUP7 PUSH2 0x26D8 JUMP JUMPDEST DUP2 DUP2 SUB PUSH1 0x20 DUP4 ADD MSTORE PUSH2 0x2FC2 DUP2 DUP5 DUP7 PUSH2 0x2EED JUMP JUMPDEST SWAP1 POP SWAP5 SWAP4 POP POP POP POP JUMP JUMPDEST PUSH32 0x4272696467653A2070657263656E74206D757374206265203C3D203130300000 PUSH1 0x0 DUP3 ADD MSTORE POP JUMP JUMPDEST PUSH1 0x0 PUSH2 0x3002 PUSH1 0x1E DUP4 PUSH2 0x283A JUMP JUMPDEST SWAP2 POP PUSH2 0x300D DUP3 PUSH2 0x2FCC JUMP JUMPDEST PUSH1 0x20 DUP3 ADD SWAP1 POP SWAP2 SWAP1 POP JUMP JUMPDEST PUSH1 0x0 PUSH1 0x20 DUP3 ADD SWAP1 POP DUP2 DUP2 SUB PUSH1 0x0 DUP4 ADD MSTORE PUSH2 0x3031 DUP2 PUSH2 0x2FF5 JUMP JUMPDEST SWAP1 POP SWAP2 SWAP1 POP JUMP JUMPDEST PUSH32 0x4272696467653A2062726964676520696E616374697665000000000000000000 PUSH1 0x0 DUP3 ADD MSTORE POP JUMP JUMPDEST PUSH1 0x0 PUSH2 0x306E PUSH1 0x17 DUP4 PUSH2 0x283A JUMP JUMPDEST SWAP2 POP PUSH2 0x3079 DUP3 PUSH2 0x3038 JUMP JUMPDEST PUSH1 0x20 DUP3 ADD SWAP1 POP SWAP2 SWAP1 POP JUMP JUMPDEST PUSH1 0x0 PUSH1 0x20 DUP3 ADD SWAP1 POP DUP2 DUP2 SUB PUSH1 0x0 DUP4 ADD MSTORE PUSH2 0x309D DUP2 PUSH2 0x3061 JUMP JUMPDEST SWAP1 POP SWAP2 SWAP1 POP JUMP JUMPDEST PUSH32 0x4272696467653A206D73672065786365656473206D6178206C656E6774680000 PUSH1 0x0 DUP3 ADD MSTORE POP JUMP JUMPDEST PUSH1 0x0 PUSH2 0x30DA PUSH1 0x1E DUP4 PUSH2 0x283A JUMP JUMPDEST SWAP2 POP PUSH2 0x30E5 DUP3 PUSH2 0x30A4 JUMP JUMPDEST PUSH1 0x20 DUP3 ADD SWAP1 POP SWAP2 SWAP1 POP JUMP JUMPDEST PUSH1 0x0 PUSH1 0x20 DUP3 ADD SWAP1 POP DUP2 DUP2 SUB PUSH1 0x0 DUP4 ADD MSTORE PUSH2 0x3109 DUP2 PUSH2 0x30CD JUMP JUMPDEST SWAP1 POP SWAP2 SWAP1 POP JUMP JUMPDEST PUSH32 0x4272696467653A20696E73756666696369656E74206D65737361676520666565 PUSH1 0x0 DUP3 ADD MSTORE POP JUMP JUMPDEST PUSH1 0x0 PUSH2 0x3146 PUSH1 0x20 DUP4 PUSH2 0x283A JUMP JUMPDEST SWAP2 POP PUSH2 0x3151 DUP3 PUSH2 0x3110 JUMP JUMPDEST PUSH1 0x20 DUP3 ADD SWAP1 POP SWAP2 SWAP1 POP JUMP JUMPDEST PUSH1 0x0 PUSH1 0x20 DUP3 ADD SWAP1 POP DUP2 DUP2 SUB PUSH1 0x0 DUP4 ADD MSTORE PUSH2 0x3175 DUP2 PUSH2 0x3139 JUMP JUMPDEST SWAP1 POP SWAP2 SWAP1 POP JUMP JUMPDEST PUSH1 0x0 PUSH2 0x3187 DUP3 PUSH2 0x2317 JUMP JUMPDEST SWAP2 POP PUSH32 0xFFFFFFFFFFFFFFFFFFFFFFFFFFFFFFFFFFFFFFFFFFFFFFFFFFFFFFFFFFFFFFFF DUP3 SUB PUSH2 0x31B9 JUMPI PUSH2 0x31B8 PUSH2 0x2923 JUMP JUMPDEST JUMPDEST PUSH1 0x1 DUP3 ADD SWAP1 POP SWAP2 SWAP1 POP JUMP JUMPDEST PUSH1 0x0 PUSH1 0xA0 DUP3 ADD SWAP1 POP PUSH2 0x31D9 PUSH1 0x0 DUP4 ADD DUP10 PUSH2 0x2321 JUMP JUMPDEST PUSH2 0x31E6 PUSH1 0x20 DUP4 ADD DUP9 PUSH2 0x26D8 JUMP JUMPDEST PUSH2 0x31F3 PUSH1 0x40 DUP4 ADD DUP8 PUSH2 0x26D8 JUMP JUMPDEST DUP2 DUP2 SUB PUSH1 0x60 DUP4 ADD MSTORE PUSH2 0x3206 DUP2 DUP6 DUP8 PUSH2 0x2EED JUMP JUMPDEST SWAP1 POP PUSH2 0x3215 PUSH1 0x80 DUP4 ADD DUP5 PUSH2 0x2321 JUMP JUMPDEST SWAP8 SWAP7 POP POP POP POP POP POP POP JUMP JUMPDEST PUSH1 0x0 PUSH2 0x322B DUP3 PUSH2 0x2317 JUMP JUMPDEST SWAP2 POP PUSH2 0x3236 DUP4 PUSH2 0x2317 JUMP JUMPDEST SWAP3 POP DUP3 DUP3 SUB SWAP1 POP DUP2 DUP2 GT ISZERO PUSH2 0x324E JUMPI PUSH2 0x324D PUSH2 0x2923 JUMP JUMPDEST JUMPDEST SWAP3 SWAP2 POP POP JUMP JUMPDEST PUSH1 0x0 DUP2 SWAP1 POP SWAP3 SWAP2 POP POP JUMP JUMPDEST POP JUMP JUMPDEST PUSH1 0x0 PUSH2 0x326F PUSH1 0x0 DUP4 PUSH2 0x3254 JUMP JUMPDEST SWAP2 POP PUSH2 0x327A DUP3 PUSH2 0x325F JUMP JUMPDEST PUSH1 0x0 DUP3 ADD SWAP1 POP SWAP2 SWAP1 POP JUMP JUMPDEST PUSH1 0x0 PUSH2 0x3290 DUP3 PUSH2 0x3262 JUMP JUMPDEST SWAP2 POP DUP2 SWAP1 POP SWAP2 SWAP1 POP JUMP JUMPDEST PUSH32 0x4272696467653A204661696C656420746F2073656E64206D7367206665657300 PUSH1 0x0 DUP3 ADD MSTORE POP JUMP JUMPDEST PUSH1 0x0 PUSH2 0x32D0 PUSH1 0x1F DUP4 PUSH2 0x283A JUMP JUMPDEST SWAP2 POP PUSH2 0x32DB DUP3 PUSH2 0x329A JUMP JUMPDEST PUSH1 0x20 DUP3 ADD SWAP1 POP SWAP2 SWAP1 POP JUMP JUMPDEST PUSH1 0x0 PUSH1 0x20 DUP3 ADD SWAP1 POP DUP2 DUP2 SUB PUSH1 0x0 DUP4 ADD MSTORE PUSH2 0x32FF DUP2 PUSH2 0x32C3 JUMP JUMPDEST SWAP1 POP SWAP2 SWAP1 POP JUMP JUMPDEST PUSH32 0x4F776E61626C653A206E6577206F776E657220697320746865207A65726F2061 PUSH1 0x0 DUP3 ADD MSTORE PUSH32 0x6464726573730000000000000000000000000000000000000000000000000000 PUSH1 0x20 DUP3 ADD MSTORE POP JUMP JUMPDEST PUSH1 0x0 PUSH2 0x3362 PUSH1 0x26 DUP4 PUSH2 0x283A JUMP JUMPDEST SWAP2 POP PUSH2 0x336D DUP3 PUSH2 0x3306 JUMP JUMPDEST PUSH1 0x40 DUP3 ADD SWAP1 POP SWAP2 SWAP1 POP JUMP JUMPDEST PUSH1 0x0 PUSH1 0x20 DUP3 ADD SWAP1 POP DUP2 DUP2 SUB PUSH1 0x0 DUP4 ADD MSTORE PUSH2 0x3391 DUP2 PUSH2 0x3355 JUMP JUMPDEST SWAP1 POP SWAP2 SWAP1 POP JUMP JUMPDEST PUSH32 0x4272696467653A206661696C656420746F2073656E6420457468657200000000 PUSH1 0x0 DUP3 ADD MSTORE POP JUMP JUMPDEST PUSH1 0x0 PUSH2 0x33CE PUSH1 0x1C DUP4 PUSH2 0x283A JUMP JUMPDEST SWAP2 POP PUSH2 0x33D9 DUP3 PUSH2 0x3398 JUMP JUMPDEST PUSH1 0x20 DUP3 ADD SWAP1 POP SWAP2 SWAP1 POP JUMP JUMPDEST PUSH1 0x0 PUSH1 0x20 DUP3 ADD SWAP1 POP DUP2 DUP2 SUB PUSH1 0x0 DUP4 ADD MSTORE PUSH2 0x33FD DUP2 PUSH2 0x33C1 JUMP JUMPDEST SWAP1 POP SWAP2 SWAP1 POP JUMP JUMPDEST PUSH1 0x0 DUP2 SWAP1 POP SWAP2 SWAP1 POP JUMP JUMPDEST PUSH1 0x0 PUSH2 0x3429 PUSH2 0x3424 PUSH2 0x341F DUP5 PUSH2 0x234B JUMP JUMPDEST PUSH2 0x3404 JUMP JUMPDEST PUSH2 0x234B JUMP JUMPDEST SWAP1 POP SWAP2 SWAP1 POP JUMP JUMPDEST PUSH1 0x0 PUSH2 0x343B DUP3 PUSH2 0x340E JUMP JUMPDEST SWAP1 POP SWAP2 SWAP1 POP JUMP JUMPDEST PUSH1 0x0 PUSH2 0x344D DUP3 PUSH2 0x3430 JUMP JUMPDEST SWAP1 POP SWAP2 SWAP1 POP JUMP JUMPDEST PUSH2 0x345D DUP2 PUSH2 0x3442 JUMP JUMPDEST DUP3 MSTORE POP POP JUMP JUMPDEST PUSH1 0x0 PUSH1 0x40 DUP3 ADD SWAP1 POP PUSH2 0x3478 PUSH1 0x0 DUP4 ADD DUP6 PUSH2 0x3454 JUMP JUMPDEST PUSH2 0x3485 PUSH1 0x20 DUP4 ADD DUP5 PUSH2 0x2321 JUMP JUMPDEST SWAP4 SWAP3 POP POP POP JUMP JUMPDEST PUSH32 0x4F776E61626C653A2063616C6C6572206973206E6F7420746865206F776E6572 PUSH1 0x0 DUP3 ADD MSTORE POP JUMP JUMPDEST PUSH1 0x0 PUSH2 0x34C2 PUSH1 0x20 DUP4 PUSH2 0x283A JUMP JUMPDEST SWAP2 POP PUSH2 0x34CD DUP3 PUSH2 0x348C JUMP JUMPDEST PUSH1 0x20 DUP3 ADD SWAP1 POP SWAP2 SWAP1 POP JUMP JUMPDEST PUSH1 0x0 PUSH1 0x20 DUP3 ADD SWAP1 POP DUP2 DUP2 SUB PUSH1 0x0 DUP4 ADD MSTORE PUSH2 0x34F1 DUP2 PUSH2 0x34B5 JUMP JUMPDEST SWAP1 POP SWAP2 SWAP1 POP JUMP JUMPDEST PUSH32 0x5265656E7472616E637947756172643A207265656E7472616E742063616C6C00 PUSH1 0x0 DUP3 ADD MSTORE POP JUMP JUMPDEST PUSH1 0x0 PUSH2 0x352E PUSH1 0x1F DUP4 PUSH2 0x283A JUMP JUMPDEST SWAP2 POP PUSH2 0x3539 DUP3 PUSH2 0x34F8 JUMP JUMPDEST PUSH1 0x20 DUP3 ADD SWAP1 POP SWAP2 SWAP1 POP JUMP JUMPDEST PUSH1 0x0 PUSH1 0x20 DUP3 ADD SWAP1 POP DUP2 DUP2 SUB PUSH1 0x0 DUP4 ADD MSTORE PUSH2 0x355D DUP2 PUSH2 0x3521 JUMP JUMPDEST SWAP1 POP SWAP2 SWAP1 POP JUMP JUMPDEST PUSH32 0x4272696467653A2076616C696461746F7220736574206964207265706C617965 PUSH1 0x0 DUP3 ADD MSTORE PUSH32 0x6400000000000000000000000000000000000000000000000000000000000000 PUSH1 0x20 DUP3 ADD MSTORE POP JUMP JUMPDEST PUSH1 0x0 PUSH2 0x35C0 PUSH1 0x21 DUP4 PUSH2 0x283A JUMP JUMPDEST SWAP2 POP PUSH2 0x35CB DUP3 PUSH2 0x3564 JUMP JUMPDEST PUSH1 0x40 DUP3 ADD SWAP1 POP SWAP2 SWAP1 POP JUMP JUMPDEST PUSH1 0x0 PUSH1 0x20 DUP3 ADD SWAP1 POP DUP2 DUP2 SUB PUSH1 0x0 DUP4 ADD MSTORE PUSH2 0x35EF DUP2 PUSH2 0x35B3 JUMP JUMPDEST SWAP1 POP SWAP2 SWAP1 POP JUMP JUMPDEST PUSH1 0x0 DUP2 MLOAD SWAP1 POP SWAP2 SWAP1 POP JUMP JUMPDEST PUSH1 0x0 DUP2 SWAP1 POP PUSH1 0x20 DUP3 ADD SWAP1 POP SWAP2 SWAP1 POP JUMP JUMPDEST PUSH1 0x0 PUSH1 0x20 DUP3 ADD SWAP1 POP SWAP2 SWAP1 POP JUMP JUMPDEST PUSH1 0x0 PUSH2 0x3629 DUP3 PUSH2 0x35F6 JUMP JUMPDEST PUSH2 0x3633 DUP2 DUP6 PUSH2 0x29F2 JUMP JUMPDEST SWAP4 POP PUSH2 0x363E DUP4 PUSH2 0x3601 JUMP JUMPDEST DUP1 PUSH1 0x0 JUMPDEST DUP4 DUP2 LT ISZERO PUSH2 0x366F JUMPI DUP2 MLOAD PUSH2 0x3656 DUP9 DUP3 PUSH2 0x2A1C JUMP JUMPDEST SWAP8 POP PUSH2 0x3661 DUP4 PUSH2 0x3611 JUMP JUMPDEST SWAP3 POP POP PUSH1 0x1 DUP2 ADD SWAP1 POP PUSH2 0x3642 JUMP JUMPDEST POP DUP6 SWAP4 POP POP POP POP SWAP3 SWAP2 POP POP JUMP JUMPDEST PUSH1 0x0 PUSH1 0x20 DUP3 ADD SWAP1 POP DUP2 DUP2 SUB PUSH1 0x0 DUP4 ADD MSTORE PUSH2 0x3696 DUP2 DUP5 PUSH2 0x361E JUMP JUMPDEST SWAP1 POP SWAP3 SWAP2 POP POP JUMP JUMPDEST PUSH32 0x4272696467653A204661696C656420746F2073656E6420726577617264000000 PUSH1 0x0 DUP3 ADD MSTORE POP JUMP JUMPDEST PUSH1 0x0 PUSH2 0x36D4 PUSH1 0x1D DUP4 PUSH2 0x283A JUMP JUMPDEST SWAP2 POP PUSH2 0x36DF DUP3 PUSH2 0x369E JUMP JUMPDEST PUSH1 0x20 DUP3 ADD SWAP1 POP SWAP2 SWAP1 POP JUMP JUMPDEST PUSH1 0x0 PUSH1 0x20 DUP3 ADD SWAP1 POP DUP2 DUP2 SUB PUSH1 0x0 DUP4 ADD MSTORE PUSH2 0x3703 DUP2 PUSH2 0x36C7 JUMP JUMPDEST SWAP1 POP SWAP2 SWAP1 POP JUMP JUMPDEST PUSH1 0x0 DUP1 REVERT JUMPDEST PUSH1 0x0 DUP1 REVERT JUMPDEST PUSH1 0x0 DUP1 REVERT JUMPDEST PUSH1 0x0 DUP1 DUP4 CALLDATALOAD PUSH1 0x1 PUSH1 0x20 SUB DUP5 CALLDATASIZE SUB SUB DUP2 SLT PUSH2 0x3736 JUMPI PUSH2 0x3735 PUSH2 0x370A JUMP JUMPDEST JUMPDEST DUP1 DUP5 ADD SWAP3 POP DUP3 CALLDATALOAD SWAP2 POP PUSH8 0xFFFFFFFFFFFFFFFF DUP3 GT ISZERO PUSH2 0x3758 JUMPI PUSH2 0x3757 PUSH2 0x370F JUMP JUMPDEST JUMPDEST PUSH1 0x20 DUP4 ADD SWAP3 POP PUSH1 0x20 DUP3 MUL CALLDATASIZE SUB DUP4 SGT ISZERO PUSH2 0x3774 JUMPI PUSH2 0x3773 PUSH2 0x3714 JUMP JUMPDEST JUMPDEST POP SWAP3 POP SWAP3 SWAP1 POP JUMP JUMPDEST PUSH32 0x4272696467653A206576656E744964207265706C617965640000000000000000 PUSH1 0x0 DUP3 ADD MSTORE POP JUMP JUMPDEST PUSH1 0x0 PUSH2 0x37B2 PUSH1 0x18 DUP4 PUSH2 0x283A JUMP JUMPDEST SWAP2 POP PUSH2 0x37BD DUP3 PUSH2 0x377C JUMP JUMPDEST PUSH1 0x20 DUP3 ADD SWAP1 POP SWAP2 SWAP1 POP JUMP JUMPDEST PUSH1 0x0 PUSH1 0x20 DUP3 ADD SWAP1 POP DUP2 DUP2 SUB PUSH1 0x0 DUP4 ADD MSTORE PUSH2 0x37E1 DUP2 PUSH2 0x37A5 JUMP JUMPDEST SWAP1 POP SWAP2 SWAP1 POP JUMP JUMPDEST PUSH32 0x4272696467653A206675747572652076616C696461746F722073657400000000 PUSH1 0x0 DUP3 ADD MSTORE POP JUMP JUMPDEST PUSH1 0x0 PUSH2 0x381E PUSH1 0x1C DUP4 PUSH2 0x283A JUMP JUMPDEST SWAP2 POP PUSH2 0x3829 DUP3 PUSH2 0x37E8 JUMP JUMPDEST PUSH1 0x20 DUP3 ADD SWAP1 POP SWAP2 SWAP1 POP JUMP JUMPDEST PUSH1 0x0 PUSH1 0x20 DUP3 ADD SWAP1 POP DUP2 DUP2 SUB PUSH1 0x0 DUP4 ADD MSTORE PUSH2 0x384D DUP2 PUSH2 0x3811 JUMP JUMPDEST SWAP1 POP SWAP2 SWAP1 POP JUMP JUMPDEST PUSH1 0x0 PUSH2 0x385F DUP3 PUSH2 0x2494 JUMP JUMPDEST SWAP2 POP PUSH2 0x386A DUP4 PUSH2 0x2494 JUMP JUMPDEST SWAP3 POP DUP3 DUP3 SUB SWAP1 POP PUSH4 0xFFFFFFFF DUP2 GT ISZERO PUSH2 0x3886 JUMPI PUSH2 0x3885 PUSH2 0x2923 JUMP JUMPDEST JUMPDEST SWAP3 SWAP2 POP POP JUMP JUMPDEST PUSH32 0x4272696467653A20657870697265642070726F6F660000000000000000000000 PUSH1 0x0 DUP3 ADD MSTORE POP JUMP JUMPDEST PUSH1 0x0 PUSH2 0x38C2 PUSH1 0x15 DUP4 PUSH2 0x283A JUMP JUMPDEST SWAP2 POP PUSH2 0x38CD DUP3 PUSH2 0x388C JUMP JUMPDEST PUSH1 0x20 DUP3 ADD SWAP1 POP SWAP2 SWAP1 POP JUMP JUMPDEST PUSH1 0x0 PUSH1 0x20 DUP3 ADD SWAP1 POP DUP2 DUP2 SUB PUSH1 0x0 DUP4 ADD MSTORE PUSH2 0x38F1 DUP2 PUSH2 0x38B5 JUMP JUMPDEST SWAP1 POP SWAP2 SWAP1 POP JUMP JUMPDEST PUSH32 0x4272696467653A20696E76616C69642076616C696461746F7220736574000000 PUSH1 0x0 DUP3 ADD MSTORE POP JUMP JUMPDEST PUSH1 0x0 PUSH2 0x392E PUSH1 0x1D DUP4 PUSH2 0x283A JUMP JUMPDEST SWAP2 POP PUSH2 0x3939 DUP3 PUSH2 0x38F8 JUMP JUMPDEST PUSH1 0x20 DUP3 ADD SWAP1 POP SWAP2 SWAP1 POP JUMP JUMPDEST PUSH1 0x0 PUSH1 0x20 DUP3 ADD SWAP1 POP DUP2 DUP2 SUB PUSH1 0x0 DUP4 ADD MSTORE PUSH2 0x395D DUP2 PUSH2 0x3921 JUMP JUMPDEST SWAP1 POP SWAP2 SWAP1 POP JUMP JUMPDEST PUSH32 0x4272696467653A20756E65787065637465642076616C696461746F7220646967 PUSH1 0x0 DUP3 ADD MSTORE PUSH32 0x6573740000000000000000000000000000000000000000000000000000000000 PUSH1 0x20 DUP3 ADD MSTORE POP JUMP JUMPDEST PUSH1 0x0 PUSH2 0x39C0 PUSH1 0x23 DUP4 PUSH2 0x283A JUMP JUMPDEST SWAP2 POP PUSH2 0x39CB DUP3 PUSH2 0x3964 JUMP JUMPDEST PUSH1 0x40 DUP3 ADD SWAP1 POP SWAP2 SWAP1 POP JUMP JUMPDEST PUSH1 0x0 PUSH1 0x20 DUP3 ADD SWAP1 POP DUP2 DUP2 SUB PUSH1 0x0 DUP4 ADD MSTORE PUSH2 0x39EF DUP2 PUSH2 0x39B3 JUMP JUMPDEST SWAP1 POP SWAP2 SWAP1 POP JUMP JUMPDEST PUSH1 0x0 PUSH2 0x3A01 DUP3 PUSH2 0x2317 JUMP JUMPDEST SWAP2 POP PUSH2 0x3A0C DUP4 PUSH2 0x2317 JUMP JUMPDEST SWAP3 POP DUP3 DUP3 MUL PUSH2 0x3A1A DUP2 PUSH2 0x2317 JUMP JUMPDEST SWAP2 POP DUP3 DUP3 DIV DUP5 EQ DUP4 ISZERO OR PUSH2 0x3A31 JUMPI PUSH2 0x3A30 PUSH2 0x2923 JUMP JUMPDEST JUMPDEST POP SWAP3 SWAP2 POP POP JUMP JUMPDEST PUSH32 0x4E487B7100000000000000000000000000000000000000000000000000000000 PUSH1 0x0 MSTORE PUSH1 0x12 PUSH1 0x4 MSTORE PUSH1 0x24 PUSH1 0x0 REVERT JUMPDEST PUSH1 0x0 PUSH2 0x3A72 DUP3 PUSH2 0x2317 JUMP JUMPDEST SWAP2 POP PUSH2 0x3A7D DUP4 PUSH2 0x2317 JUMP JUMPDEST SWAP3 POP DUP3 PUSH2 0x3A8D JUMPI PUSH2 0x3A8C PUSH2 0x3A38 JUMP JUMPDEST JUMPDEST DUP3 DUP3 DIV SWAP1 POP SWAP3 SWAP2 POP POP JUMP JUMPDEST PUSH1 0x0 DUP1 DUP4 CALLDATALOAD PUSH1 0x1 PUSH1 0x20 SUB DUP5 CALLDATASIZE SUB SUB DUP2 SLT PUSH2 0x3AB5 JUMPI PUSH2 0x3AB4 PUSH2 0x370A JUMP JUMPDEST JUMPDEST DUP1 DUP5 ADD SWAP3 POP DUP3 CALLDATALOAD SWAP2 POP PUSH8 0xFFFFFFFFFFFFFFFF DUP3 GT ISZERO PUSH2 0x3AD7 JUMPI PUSH2 0x3AD6 PUSH2 0x370F JUMP JUMPDEST JUMPDEST PUSH1 0x20 DUP4 ADD SWAP3 POP PUSH1 0x20 DUP3 MUL CALLDATASIZE SUB DUP4 SGT ISZERO PUSH2 0x3AF3 JUMPI PUSH2 0x3AF2 PUSH2 0x3714 JUMP JUMPDEST JUMPDEST POP SWAP3 POP SWAP3 SWAP1 POP JUMP JUMPDEST PUSH32 0x4E487B7100000000000000000000000000000000000000000000000000000000 PUSH1 0x0 MSTORE PUSH1 0x32 PUSH1 0x4 MSTORE PUSH1 0x24 PUSH1 0x0 REVERT JUMPDEST PUSH1 0x0 DUP1 DUP4 CALLDATALOAD PUSH1 0x1 PUSH1 0x20 SUB DUP5 CALLDATASIZE SUB SUB DUP2 SLT PUSH2 0x3B47 JUMPI PUSH2 0x3B46 PUSH2 0x370A JUMP JUMPDEST JUMPDEST DUP1 DUP5 ADD SWAP3 POP DUP3 CALLDATALOAD SWAP2 POP PUSH8 0xFFFFFFFFFFFFFFFF DUP3 GT ISZERO PUSH2 0x3B69 JUMPI PUSH2 0x3B68 PUSH2 0x370F JUMP JUMPDEST JUMPDEST PUSH1 0x20 DUP4 ADD SWAP3 POP PUSH1 0x20 DUP3 MUL CALLDATASIZE SUB DUP4 SGT ISZERO PUSH2 0x3B85 JUMPI PUSH2 0x3B84 PUSH2 0x3714 JUMP JUMPDEST JUMPDEST POP SWAP3 POP SWAP3 SWAP1 POP JUMP JUMPDEST PUSH1 0x0 PUSH1 0xFF DUP3 AND SWAP1 POP SWAP2 SWAP1 POP JUMP JUMPDEST PUSH2 0x3BA3 DUP2 PUSH2 0x3B8D JUMP JUMPDEST DUP2 EQ PUSH2 0x3BAE JUMPI PUSH1 0x0 DUP1 REVERT JUMPDEST POP JUMP JUMPDEST PUSH1 0x0 DUP2 CALLDATALOAD SWAP1 POP PUSH2 0x3BC0 DUP2 PUSH2 0x3B9A JUMP JUMPDEST SWAP3 SWAP2 POP POP JUMP JUMPDEST PUSH1 0x0 PUSH1 0x20 DUP3 DUP5 SUB SLT ISZERO PUSH2 0x3BDC JUMPI PUSH2 0x3BDB PUSH2 0x2252 JUMP JUMPDEST JUMPDEST PUSH1 0x0 PUSH2 0x3BEA DUP5 DUP3 DUP6 ADD PUSH2 0x3BB1 JUMP JUMPDEST SWAP2 POP POP SWAP3 SWAP2 POP POP JUMP JUMPDEST PUSH32 0x4272696467653A207369676E617475726520696E76616C696400000000000000 PUSH1 0x0 DUP3 ADD MSTORE POP JUMP JUMPDEST PUSH1 0x0 PUSH2 0x3C29 PUSH1 0x19 DUP4 PUSH2 0x283A JUMP JUMPDEST SWAP2 POP PUSH2 0x3C34 DUP3 PUSH2 0x3BF3 JUMP JUMPDEST PUSH1 0x20 DUP3 ADD SWAP1 POP SWAP2 SWAP1 POP JUMP JUMPDEST PUSH1 0x0 PUSH1 0x20 DUP3 ADD SWAP1 POP DUP2 DUP2 SUB PUSH1 0x0 DUP4 ADD MSTORE PUSH2 0x3C58 DUP2 PUSH2 0x3C1C JUMP JUMPDEST SWAP1 POP SWAP2 SWAP1 POP JUMP JUMPDEST PUSH32 0x4272696467653A206E6F7420656E6F756768207369676E617475726573000000 PUSH1 0x0 DUP3 ADD MSTORE POP JUMP JUMPDEST PUSH1 0x0 PUSH2 0x3C95 PUSH1 0x1D DUP4 PUSH2 0x283A JUMP JUMPDEST SWAP2 POP PUSH2 0x3CA0 DUP3 PUSH2 0x3C5F JUMP JUMPDEST PUSH1 0x20 DUP3 ADD SWAP1 POP SWAP2 SWAP1 POP JUMP JUMPDEST PUSH1 0x0 PUSH1 0x20 DUP3 ADD SWAP1 POP DUP2 DUP2 SUB PUSH1 0x0 DUP4 ADD MSTORE PUSH2 0x3CC4 DUP2 PUSH2 0x3C88 JUMP JUMPDEST SWAP1 POP SWAP2 SWAP1 POP JUMP JUMPDEST PUSH2 0x3CD4 DUP2 PUSH2 0x3B8D JUMP JUMPDEST DUP3 MSTORE POP POP JUMP JUMPDEST PUSH1 0x0 PUSH1 0x80 DUP3 ADD SWAP1 POP PUSH2 0x3CEF PUSH1 0x0 DUP4 ADD DUP8 PUSH2 0x270C JUMP JUMPDEST PUSH2 0x3CFC PUSH1 0x20 DUP4 ADD DUP7 PUSH2 0x3CCB JUMP JUMPDEST PUSH2 0x3D09 PUSH1 0x40 DUP4 ADD DUP6 PUSH2 0x270C JUMP JUMPDEST PUSH2 0x3D16 PUSH1 0x60 DUP4 ADD DUP5 PUSH2 0x270C JUMP JUMPDEST SWAP6 SWAP5 POP POP POP POP POP JUMP JUMPDEST PUSH32 0x4E487B7100000000000000000000000000000000000000000000000000000000 PUSH1 0x0 MSTORE PUSH1 0x21 PUSH1 0x4 MSTORE PUSH1 0x24 PUSH1 0x0 REVERT JUMPDEST PUSH32 0x45434453413A20696E76616C6964207369676E61747572650000000000000000 PUSH1 0x0 DUP3 ADD MSTORE POP JUMP JUMPDEST PUSH1 0x0 PUSH2 0x3D84 PUSH1 0x18 DUP4 PUSH2 0x283A JUMP JUMPDEST SWAP2 POP PUSH2 0x3D8F DUP3 PUSH2 0x3D4E JUMP JUMPDEST PUSH1 0x20 DUP3 ADD SWAP1 POP SWAP2 SWAP1 POP JUMP JUMPDEST PUSH1 0x0 PUSH1 0x20 DUP3 ADD SWAP1 POP DUP2 DUP2 SUB PUSH1 0x0 DUP4 ADD MSTORE PUSH2 0x3DB3 DUP2 PUSH2 0x3D77 JUMP JUMPDEST SWAP1 POP SWAP2 SWAP1 POP JUMP JUMPDEST PUSH32 0x45434453413A20696E76616C6964207369676E6174757265206C656E67746800 PUSH1 0x0 DUP3 ADD MSTORE POP JUMP JUMPDEST PUSH1 0x0 PUSH2 0x3DF0 PUSH1 0x1F DUP4 PUSH2 0x283A JUMP JUMPDEST SWAP2 POP PUSH2 0x3DFB DUP3 PUSH2 0x3DBA JUMP JUMPDEST PUSH1 0x20 DUP3 ADD SWAP1 POP SWAP2 SWAP1 POP JUMP JUMPDEST PUSH1 0x0 PUSH1 0x20 DUP3 ADD SWAP1 POP DUP2 DUP2 SUB PUSH1 0x0 DUP4 ADD MSTORE PUSH2 0x3E1F DUP2 PUSH2 0x3DE3 JUMP JUMPDEST SWAP1 POP SWAP2 SWAP1 POP JUMP JUMPDEST PUSH32 0x45434453413A20696E76616C6964207369676E6174757265202773272076616C PUSH1 0x0 DUP3 ADD MSTORE PUSH32 0x7565000000000000000000000000000000000000000000000000000000000000 PUSH1 0x20 DUP3 ADD MSTORE POP JUMP JUMPDEST PUSH1 0x0 PUSH2 0x3E82 PUSH1 0x22 DUP4 PUSH2 0x283A JUMP JUMPDEST SWAP2 POP PUSH2 0x3E8D DUP3 PUSH2 0x3E26 JUMP JUMPDEST PUSH1 0x40 DUP3 ADD SWAP1 POP SWAP2 SWAP1 POP JUMP JUMPDEST PUSH1 0x0 PUSH1 0x20 DUP3 ADD SWAP1 POP DUP2 DUP2 SUB PUSH1 0x0 DUP4 ADD MSTORE PUSH2 0x3EB1 DUP2 PUSH2 0x3E75 JUMP JUMPDEST SWAP1 POP SWAP2 SWAP1 POP JUMP JUMPDEST PUSH32 0x45434453413A20696E76616C6964207369676E6174757265202776272076616C PUSH1 0x0 DUP3 ADD MSTORE PUSH32 0x7565000000000000000000000000000000000000000000000000000000000000 PUSH1 0x20 DUP3 ADD MSTORE POP JUMP JUMPDEST PUSH1 0x0 PUSH2 0x3F14 PUSH1 0x22 DUP4 PUSH2 0x283A JUMP JUMPDEST SWAP2 POP PUSH2 0x3F1F DUP3 PUSH2 0x3EB8 JUMP JUMPDEST PUSH1 0x40 DUP3 ADD SWAP1 POP SWAP2 SWAP1 POP JUMP JUMPDEST PUSH1 0x0 PUSH1 0x20 DUP3 ADD SWAP1 POP DUP2 DUP2 SUB PUSH1 0x0 DUP4 ADD MSTORE PUSH2 0x3F43 DUP2 PUSH2 0x3F07 JUMP JUMPDEST SWAP1 POP SWAP2 SWAP1 POP JUMP INVALID LOG2 PUSH5 0x6970667358 0x22 SLT KECCAK256 0xF9 0xA8 0xD1 0xB8 PUSH11 0x248B8C1DA50BC478FABE85 DUP10 PUSH8 0x22E6801967A70603 AND LOG2 PUSH28 0xAA54EB64736F6C634300081100330000000000000000000000000000 "
    },
    "gasEstimates": {
      "creation": {
        "codeDepositCost": "3251200",
        "executionCost": "infinite",
        "totalCost": "infinite"
      },
      "external": {
        "accumulatedMessageFees()": "2518",
        "active()": "2540",
        "activeValidatorSetId()": "2583",
        "bridgeFee()": "2519",
        "endow()": "1387",
        "forceActiveValidatorSet(address[],uint32)": "infinite",
        "forceHistoricValidatorSet(address[],uint32)": "infinite",
        "maxMessageLength()": "2542",
        "maxRewardPayout()": "2475",
        "onMessageReceived(address,bytes)": "infinite",
        "owner()": "2567",
        "palletAddress()": "2625",
        "proofTTL()": "2541",
        "receiveMessage(address,address,bytes,(uint256,uint32,uint8[],bytes32[],bytes32[],address[]))": "infinite",
        "renounceOwnership()": "30509",
        "sendMessage(address,bytes)": "infinite",
        "sendMessageFee()": "2527",
        "sentEventId()": "2541",
        "setActive(bool)": "28171",
        "setBridgeFee(uint256)": "26050",
        "setMaxMessageLength(uint256)": "25984",
        "setMaxRewardPayout(uint256)": "26029",
        "setPalletAddress(address)": "28215",
        "setProofTTL(uint256)": "25985",
        "setSendMessageFee(uint256)": "26072",
        "setSentEventId(uint256)": "25984",
        "setThreshold(uint256)": "26032",
        "supportsInterface(bytes4)": "820",
        "thresholdPercent()": "2473",
        "transferOwnership(address)": "30854",
        "validatorSetDigests(uint256)": "2854",
        "verifiedEventIds(uint256)": "2862",
        "withdrawAll(address)": "infinite",
        "withdrawMsgFees(address,uint256)": "infinite"
      },
      "internal": {
        "_setValidators(address[] memory,uint32)": "infinite",
        "_verifyMessage(bytes memory,struct EventProof calldata)": "infinite"
      }
    },
    "methodIdentifiers": {
      "accumulatedMessageFees()": "6a70fef2",
      "active()": "02fb0c5e",
      "activeValidatorSetId()": "5f7e9399",
      "bridgeFee()": "82b12dd7",
      "endow()": "06e30dfc",
      "forceActiveValidatorSet(address[],uint32)": "4acf7721",
      "forceHistoricValidatorSet(address[],uint32)": "4008b03f",
      "maxMessageLength()": "1d1d4e29",
      "maxRewardPayout()": "2c05f9a2",
      "onMessageReceived(address,bytes)": "650bd364",
      "owner()": "8da5cb5b",
      "palletAddress()": "c6c0f59e",
      "proofTTL()": "3ab578aa",
      "receiveMessage(address,address,bytes,(uint256,uint32,uint8[],bytes32[],bytes32[],address[]))": "823d2fc8",
      "renounceOwnership()": "715018a6",
      "sendMessage(address,bytes)": "bb5ddb0f",
      "sendMessageFee()": "50dcb027",
      "sentEventId()": "87b50acb",
      "setActive(bool)": "acec338a",
      "setBridgeFee(uint256)": "998cdf83",
      "setMaxMessageLength(uint256)": "9c11bc30",
      "setMaxRewardPayout(uint256)": "3301a464",
      "setPalletAddress(address)": "2ee111ed",
      "setProofTTL(uint256)": "7755618b",
      "setSendMessageFee(uint256)": "728952f8",
      "setSentEventId(uint256)": "61ab5a78",
      "setThreshold(uint256)": "960bfe04",
      "supportsInterface(bytes4)": "01ffc9a7",
      "thresholdPercent()": "cfc16cea",
      "transferOwnership(address)": "f2fde38b",
      "validatorSetDigests(uint256)": "996b2f94",
      "verifiedEventIds(uint256)": "d87500db",
      "withdrawAll(address)": "fa09e630",
      "withdrawMsgFees(address,uint256)": "f0bdb2d1"
    }
  },
  "abi": [
    {
      "anonymous": false,
      "inputs": [
        {
          "indexed": true,
          "internalType": "bool",
          "name": "active",
          "type": "bool"
        }
      ],
      "name": "BridgeActiveUpdated",
      "type": "event"
    },
    {
      "anonymous": false,
      "inputs": [
        {
          "indexed": true,
          "internalType": "uint256",
          "name": "bridgeFee",
          "type": "uint256"
        }
      ],
      "name": "BridgeFeeUpdated",
      "type": "event"
    },
    {
      "anonymous": false,
      "inputs": [
        {
          "indexed": true,
          "internalType": "uint256",
          "name": "amount",
          "type": "uint256"
        }
      ],
      "name": "Endowed",
      "type": "event"
    },
    {
      "anonymous": false,
      "inputs": [
        {
          "indexed": false,
          "internalType": "address",
          "name": "_to",
          "type": "address"
        },
        {
          "indexed": false,
          "internalType": "uint256",
          "name": "_amount",
          "type": "uint256"
        }
      ],
      "name": "EtherWithdrawn",
      "type": "event"
    },
    {
      "anonymous": false,
      "inputs": [
        {
          "indexed": true,
          "internalType": "bytes32",
          "name": "validatorSetDigest",
          "type": "bytes32"
        },
        {
          "indexed": true,
          "internalType": "uint32",
          "name": "validatorSetId",
          "type": "uint32"
        }
      ],
      "name": "ForceSetActiveValidators",
      "type": "event"
    },
    {
      "anonymous": false,
      "inputs": [
        {
          "indexed": true,
          "internalType": "bytes32",
          "name": "validatorSetDigest",
          "type": "bytes32"
        },
        {
          "indexed": true,
          "internalType": "uint32",
          "name": "validatorSetId",
          "type": "uint32"
        }
      ],
      "name": "ForceSetHistoricValidators",
      "type": "event"
    },
    {
      "anonymous": false,
      "inputs": [
        {
          "indexed": true,
          "internalType": "uint256",
          "name": "maxMessageLength",
          "type": "uint256"
        }
      ],
      "name": "MaxMessageLengthUpdated",
      "type": "event"
    },
    {
      "anonymous": false,
      "inputs": [
        {
          "indexed": true,
          "internalType": "uint256",
          "name": "maxRewardPayout",
          "type": "uint256"
        }
      ],
      "name": "MaxRewardPayoutUpdated",
      "type": "event"
    },
    {
      "anonymous": false,
      "inputs": [
        {
          "indexed": true,
          "internalType": "uint256",
          "name": "eventId",
          "type": "uint256"
        },
        {
          "indexed": true,
          "internalType": "address",
          "name": "source",
          "type": "address"
        },
        {
          "indexed": true,
          "internalType": "address",
          "name": "destinate",
          "type": "address"
        },
        {
          "indexed": false,
          "internalType": "bytes",
          "name": "message",
          "type": "bytes"
        }
      ],
      "name": "MessageReceived",
      "type": "event"
    },
    {
      "anonymous": false,
      "inputs": [
        {
          "indexed": true,
          "internalType": "address",
          "name": "previousOwner",
          "type": "address"
        },
        {
          "indexed": true,
          "internalType": "address",
          "name": "newOwner",
          "type": "address"
        }
      ],
      "name": "OwnershipTransferred",
      "type": "event"
    },
    {
      "anonymous": false,
      "inputs": [
        {
          "indexed": true,
          "internalType": "address",
          "name": "palletAddress",
          "type": "address"
        }
      ],
      "name": "PalletAddressUpdated",
      "type": "event"
    },
    {
      "anonymous": false,
      "inputs": [
        {
          "indexed": true,
          "internalType": "uint256",
          "name": "proofTTL",
          "type": "uint256"
        }
      ],
      "name": "ProofTTLUpdated",
      "type": "event"
    },
    {
      "anonymous": false,
      "inputs": [
        {
          "indexed": false,
          "internalType": "uint256",
          "name": "messageId",
          "type": "uint256"
        },
        {
          "indexed": false,
          "internalType": "address",
          "name": "source",
          "type": "address"
        },
        {
          "indexed": false,
          "internalType": "address",
          "name": "destination",
          "type": "address"
        },
        {
          "indexed": false,
          "internalType": "bytes",
          "name": "message",
          "type": "bytes"
        },
        {
          "indexed": false,
          "internalType": "uint256",
          "name": "fee",
          "type": "uint256"
        }
      ],
      "name": "SendMessage",
      "type": "event"
    },
    {
      "anonymous": false,
      "inputs": [
        {
          "indexed": true,
          "internalType": "uint256",
          "name": "sendMessageFee",
          "type": "uint256"
        }
      ],
      "name": "SendMessageFeeUpdated",
      "type": "event"
    },
    {
      "anonymous": false,
      "inputs": [
        {
          "indexed": true,
          "internalType": "uint256",
          "name": "_newId",
          "type": "uint256"
        }
      ],
      "name": "SentEventIdUpdated",
      "type": "event"
    },
    {
      "anonymous": false,
      "inputs": [
        {
          "indexed": true,
          "internalType": "bytes32",
          "name": "validatorSetDigest",
          "type": "bytes32"
        },
        {
          "indexed": true,
          "internalType": "uint256",
          "name": "reward",
          "type": "uint256"
        },
        {
          "indexed": true,
          "internalType": "uint32",
          "name": "validatorSetId",
          "type": "uint32"
        }
      ],
      "name": "SetValidators",
      "type": "event"
    },
    {
      "anonymous": false,
      "inputs": [
        {
          "indexed": true,
          "internalType": "uint256",
          "name": "thresholdPercent",
          "type": "uint256"
        }
      ],
      "name": "ThresholdUpdated",
      "type": "event"
    },
    {
      "anonymous": false,
      "inputs": [
        {
          "indexed": true,
          "internalType": "address",
          "name": "recipient",
          "type": "address"
        },
        {
          "indexed": true,
          "internalType": "uint256",
          "name": "amount",
          "type": "uint256"
        }
      ],
      "name": "WithdrawnMessageFees",
      "type": "event"
    },
    {
      "inputs": [],
      "name": "accumulatedMessageFees",
      "outputs": [
        {
          "internalType": "uint256",
          "name": "",
          "type": "uint256"
        }
      ],
      "stateMutability": "view",
      "type": "function"
    },
    {
      "inputs": [],
      "name": "active",
      "outputs": [
        {
          "internalType": "bool",
          "name": "",
          "type": "bool"
        }
      ],
      "stateMutability": "view",
      "type": "function"
    },
    {
      "inputs": [],
      "name": "activeValidatorSetId",
      "outputs": [
        {
          "internalType": "uint32",
          "name": "",
          "type": "uint32"
        }
      ],
      "stateMutability": "view",
      "type": "function"
    },
    {
      "inputs": [],
      "name": "bridgeFee",
      "outputs": [
        {
          "internalType": "uint256",
          "name": "",
          "type": "uint256"
        }
      ],
      "stateMutability": "view",
      "type": "function"
    },
    {
      "inputs": [],
      "name": "endow",
      "outputs": [],
      "stateMutability": "payable",
      "type": "function"
    },
    {
      "inputs": [
        {
          "internalType": "address[]",
          "name": "newValidators",
          "type": "address[]"
        },
        {
          "internalType": "uint32",
          "name": "newValidatorSetId",
          "type": "uint32"
        }
      ],
      "name": "forceActiveValidatorSet",
      "outputs": [],
      "stateMutability": "nonpayable",
      "type": "function"
    },
    {
      "inputs": [
        {
          "internalType": "address[]",
          "name": "_validators",
          "type": "address[]"
        },
        {
          "internalType": "uint32",
          "name": "validatorSetId",
          "type": "uint32"
        }
      ],
      "name": "forceHistoricValidatorSet",
      "outputs": [],
      "stateMutability": "nonpayable",
      "type": "function"
    },
    {
      "inputs": [],
      "name": "maxMessageLength",
      "outputs": [
        {
          "internalType": "uint256",
          "name": "",
          "type": "uint256"
        }
      ],
      "stateMutability": "view",
      "type": "function"
    },
    {
      "inputs": [],
      "name": "maxRewardPayout",
      "outputs": [
        {
          "internalType": "uint256",
          "name": "",
          "type": "uint256"
        }
      ],
      "stateMutability": "view",
      "type": "function"
    },
    {
      "inputs": [
        {
          "internalType": "address",
          "name": "source",
          "type": "address"
        },
        {
          "internalType": "bytes",
          "name": "message",
          "type": "bytes"
        }
      ],
      "name": "onMessageReceived",
      "outputs": [],
      "stateMutability": "nonpayable",
      "type": "function"
    },
    {
      "inputs": [],
      "name": "owner",
      "outputs": [
        {
          "internalType": "address",
          "name": "",
          "type": "address"
        }
      ],
      "stateMutability": "view",
      "type": "function"
    },
    {
      "inputs": [],
      "name": "palletAddress",
      "outputs": [
        {
          "internalType": "address",
          "name": "",
          "type": "address"
        }
      ],
      "stateMutability": "view",
      "type": "function"
    },
    {
      "inputs": [],
      "name": "proofTTL",
      "outputs": [
        {
          "internalType": "uint256",
          "name": "",
          "type": "uint256"
        }
      ],
      "stateMutability": "view",
      "type": "function"
    },
    {
      "inputs": [
        {
          "internalType": "address",
          "name": "source",
          "type": "address"
        },
        {
          "internalType": "address",
          "name": "destination",
          "type": "address"
        },
        {
          "internalType": "bytes",
          "name": "appMessage",
          "type": "bytes"
        },
        {
          "components": [
            {
              "internalType": "uint256",
              "name": "eventId",
              "type": "uint256"
            },
            {
              "internalType": "uint32",
              "name": "validatorSetId",
              "type": "uint32"
            },
            {
              "internalType": "uint8[]",
              "name": "v",
              "type": "uint8[]"
            },
            {
              "internalType": "bytes32[]",
              "name": "r",
              "type": "bytes32[]"
            },
            {
              "internalType": "bytes32[]",
              "name": "s",
              "type": "bytes32[]"
            },
            {
              "internalType": "address[]",
              "name": "validators",
              "type": "address[]"
            }
          ],
          "internalType": "struct EventProof",
          "name": "proof",
          "type": "tuple"
        }
      ],
      "name": "receiveMessage",
      "outputs": [],
      "stateMutability": "payable",
      "type": "function"
    },
    {
      "inputs": [],
      "name": "renounceOwnership",
      "outputs": [],
      "stateMutability": "nonpayable",
      "type": "function"
    },
    {
      "inputs": [
        {
          "internalType": "address",
          "name": "destination",
          "type": "address"
        },
        {
          "internalType": "bytes",
          "name": "message",
          "type": "bytes"
        }
      ],
      "name": "sendMessage",
      "outputs": [],
      "stateMutability": "payable",
      "type": "function"
    },
    {
      "inputs": [],
      "name": "sendMessageFee",
      "outputs": [
        {
          "internalType": "uint256",
          "name": "",
          "type": "uint256"
        }
      ],
      "stateMutability": "view",
      "type": "function"
    },
    {
      "inputs": [],
      "name": "sentEventId",
      "outputs": [
        {
          "internalType": "uint256",
          "name": "",
          "type": "uint256"
        }
      ],
      "stateMutability": "view",
      "type": "function"
    },
    {
      "inputs": [
        {
          "internalType": "bool",
          "name": "_active",
          "type": "bool"
        }
      ],
      "name": "setActive",
      "outputs": [],
      "stateMutability": "nonpayable",
      "type": "function"
    },
    {
      "inputs": [
        {
          "internalType": "uint256",
          "name": "_bridgeFee",
          "type": "uint256"
        }
      ],
      "name": "setBridgeFee",
      "outputs": [],
      "stateMutability": "nonpayable",
      "type": "function"
    },
    {
      "inputs": [
        {
          "internalType": "uint256",
          "name": "_maxMessageLength",
          "type": "uint256"
        }
      ],
      "name": "setMaxMessageLength",
      "outputs": [],
      "stateMutability": "nonpayable",
      "type": "function"
    },
    {
      "inputs": [
        {
          "internalType": "uint256",
          "name": "_maxRewardPayout",
          "type": "uint256"
        }
      ],
      "name": "setMaxRewardPayout",
      "outputs": [],
      "stateMutability": "nonpayable",
      "type": "function"
    },
    {
      "inputs": [
        {
          "internalType": "address",
          "name": "_palletAddress",
          "type": "address"
        }
      ],
      "name": "setPalletAddress",
      "outputs": [],
      "stateMutability": "nonpayable",
      "type": "function"
    },
    {
      "inputs": [
        {
          "internalType": "uint256",
          "name": "_proofTTL",
          "type": "uint256"
        }
      ],
      "name": "setProofTTL",
      "outputs": [],
      "stateMutability": "nonpayable",
      "type": "function"
    },
    {
      "inputs": [
        {
          "internalType": "uint256",
          "name": "_fee",
          "type": "uint256"
        }
      ],
      "name": "setSendMessageFee",
      "outputs": [],
      "stateMutability": "nonpayable",
      "type": "function"
    },
    {
      "inputs": [
        {
          "internalType": "uint256",
          "name": "_newId",
          "type": "uint256"
        }
      ],
      "name": "setSentEventId",
      "outputs": [],
      "stateMutability": "nonpayable",
      "type": "function"
    },
    {
      "inputs": [
        {
          "internalType": "uint256",
          "name": "_thresholdPercent",
          "type": "uint256"
        }
      ],
      "name": "setThreshold",
      "outputs": [],
      "stateMutability": "nonpayable",
      "type": "function"
    },
    {
      "inputs": [
        {
          "internalType": "bytes4",
          "name": "interfaceId",
          "type": "bytes4"
        }
      ],
      "name": "supportsInterface",
      "outputs": [
        {
          "internalType": "bool",
          "name": "",
          "type": "bool"
        }
      ],
      "stateMutability": "view",
      "type": "function"
    },
    {
      "inputs": [],
      "name": "thresholdPercent",
      "outputs": [
        {
          "internalType": "uint256",
          "name": "",
          "type": "uint256"
        }
      ],
      "stateMutability": "view",
      "type": "function"
    },
    {
      "inputs": [
        {
          "internalType": "address",
          "name": "newOwner",
          "type": "address"
        }
      ],
      "name": "transferOwnership",
      "outputs": [],
      "stateMutability": "nonpayable",
      "type": "function"
    },
    {
      "inputs": [
        {
          "internalType": "uint256",
          "name": "",
          "type": "uint256"
        }
      ],
      "name": "validatorSetDigests",
      "outputs": [
        {
          "internalType": "bytes32",
          "name": "",
          "type": "bytes32"
        }
      ],
      "stateMutability": "view",
      "type": "function"
    },
    {
      "inputs": [
        {
          "internalType": "uint256",
          "name": "",
          "type": "uint256"
        }
      ],
      "name": "verifiedEventIds",
      "outputs": [
        {
          "internalType": "bool",
          "name": "",
          "type": "bool"
        }
      ],
      "stateMutability": "view",
      "type": "function"
    },
    {
      "inputs": [
        {
          "internalType": "address payable",
          "name": "_to",
          "type": "address"
        }
      ],
      "name": "withdrawAll",
      "outputs": [],
      "stateMutability": "nonpayable",
      "type": "function"
    },
    {
      "inputs": [
        {
          "internalType": "address payable",
          "name": "_to",
          "type": "address"
        },
        {
          "internalType": "uint256",
          "name": "_amount",
          "type": "uint256"
        }
      ],
      "name": "withdrawMsgFees",
      "outputs": [],
      "stateMutability": "nonpayable",
      "type": "function"
    }
  ]
}